:020000040800F2
:10000000A8330020C1510008190500081B0500088D
:100010001F05000823050008270500080000000050
:100020000000000000000000000000003502000891
:100030002B0500080000000079020008872F000847
:10004000DB510008DB510008DB51000833050008D4
:10005000DB510008DB510008DB510008DB510008D0
:10006000DB510008DB510008DB510008DB510008C0
:10007000DB510008DB510008DB510008DB510008B0
:10008000DB510008DB510008DB510008DB510008A0
:10009000DB510008DB510008DB510008DB51000890
:1000A000DB510008DB510008DB510008EB030008BE
:1000B000DB510008DB510008DB510008DB51000870
:1000C000DB510008DB510008DB510008DB51000860
:1000D000DB510008CF04000835040008DB5100089C
:1000E00049050008DB510008DB51000800F002F868
:1000F00000F090F80AA090E8000C82448344AAF132
:100100000107DA4501D100F085F8AFF2090EBAE82F
:100110000F0013F0010F18BFFB1A43F0010318473B
:100120001476000034760000103A24BF78C878C1F5
:10013000FAD8520724BF30C830C144BF04680C60ED
:10014000704700000023002400250026103A28BF35
:1001500078C1FBD8520728BF30C148BF0B60704739
:100160006E2905F09382702905F0D583662907F082
:100170006582652907F06282672907F05F8261293D
:10018000AFF3008003681B0A28BF41F08001692992
:1001900005F04082642905F03D82752905F03A8218
:1001A0006F2905F06283782905F0A183E92905F01C
:1001B000FD82E42905F0FA82F52905F0F782EF299E
:1001C00005F05F83F82905F0A0830368DB0928BFE9
:1001D00041F08001632905F02487732905F0298700
:1001E000E32905F03487F32905F0398700207047AB
:1001F0001FB505F085FF04000020002106F084FCF7
:10020000401C60600020002106F068FCE0601FBD1B
:1002100010B510BD05F047FF1146FFF7E9FF00F0EC
:1002200056F806F023F803B4FFF7F2FF03BC06F01C
:100230006BF80000224B19680868B0E8F00F80F3F3
:100240000988BFF36F8F4FF0000080F311884EF0E4
:100250000D0E70470000000006480068006880F33B
:10026000088862B661B6BFF34F8FBFF36F8F00DFB0
:1002700000BF00BF08ED00E0EFF30980BFF36F8F10
:100280000F4B1A6820E9F00F106008B54FF0BF005F
:1002900080F31188BFF34F8FBFF36F8F01F07FFFA3
:1002A0004FF0000080F31188BDE808401968086825
:1002B000B0E8F00F80F30988BFF36F8F704700BF7D
:1002C00030000020EFF3058070470000704770B5E4
:1002D00002F078FF154800684FF47A72B0FBF2F133
:1002E000481EB0F1807F00D31BE0481E4FF0E02293
:1002F000506150170F22002804DB13071C0E0C4B13
:100300001C5406E013071D0E0A4B00F00F04241FB7
:100310001D5500BF00204FF0E022906107201061C2
:1003200000BF02F09FF8002070BD0000B800002060
:1003300000E400E018ED00E084498989844A1268ED
:10034000914207DC81498989814A1268521A7F49A2
:10035000091D88547E490968491C7D4A11607B4902
:100360008989C91C1268914202DC7A497A4A116073
:1003700070471CB5044679480068012833D1784895
:10038000006800900020019076490860704908607C
:10039000724908606D48807A30B9002301AA694625
:1003A0007148006801F087F914B1172C08D103E0F7
:1003B00000206E49087010E001206C4908700CE0C4
:1003C000012068490860AFF25500634908600122C6
:1003D0000221674804F02DFA1CBD00BFAFF2A70050
:1003E0005D49086000BF00BFF6E72DE9F04102213A
:1003F0005F4804F0DDFC5E4804F0ADFC04465C4858
:1004000004F0A6FC051B502C12D9204606F0CBFDAB
:1004100006460022574B06F0D9FD09D2082D07D910
:1004200001204E49086000220221514804F001FADF
:10043000BDE8F08170B540F225514F4804F0A6FEAA
:1004400002214D4804F062FE05464B4804F0F4FDDD
:10045000C4B22DB101220221454804F0EAF970BD71
:1004600020463D490968884700BFF8E738B504468B
:1004700000200090EF2C07D100236A463F493A48FC
:10048000006801F018F902E03D483E49086038BDB7
:100490003A494870AFF22B013A4A11607047374928
:1004A0000870AFF21301374A11607047FE2804D17B
:1004B000AFF21501334A116003E0AFF20F01314A88
:1004C00011607047AFF21B012E4A116070477CB576
:1004D0000020019040F225512B4804F057FE0221E4
:1004E000294804F013FE0546274804F0A5FDC4B2D0
:1004F00005B17CBD204623490968884701F0EEFF1D
:100500000646002001AB3246062100901F480068D5
:1005100002F0E6FA00BFECE7704700BFFEE700BF5D
:10052000FEE700BFFEE700BFFEE770477047704779
:10053000704710B5012003F017FD20B1012003F032
:1005400023FD03F0E3FC10BD704700003C180020C1
:1005500004000020730300081000002008000020A1
:1005600040760008000000209C0000200C000020C5
:10057000002C01400088C3400044004014000020CB
:10058000AD0400081800002000380140A000002041
:1005900000B585B00121480503F005FC01210920C3
:1005A00003F0F4FBC020ADF8000003208DF802003A
:1005B0001C208DF803006946DA4802F029FFDA486A
:1005C00003F074F80020ADF808004BF6FF70ADF8AA
:1005D0000A003020ADF80C004FF48060ADF80E003A
:1005E0000001ADF81000D14801900121CE4803F080
:1005F000F4F801A9CC4803F072F80121CA4803F0CD
:1006000028F905B000BD00BF011EA0F1010290B2A3
:10061000FAD1704738B504460D4600BF0121204687
:1006200003F0FFF81421204603F05AF9009000224D
:100630002946204603F04BF91421204603F050F9D7
:1006400000F002000028E9D0B949204603F009FA79
:100650000121204603F0F1F838BD2DE9F0410746AD
:10066000884615461E46069C14B90120BDE8F08157
:1006700000BF4FF40031384603F0D6F90028F8D116
:100680000121384603F0E5F80121384603F0C9F8A6
:1006900000BFA849384603F0A5F90028F9D0002288
:1006A0004146384603F013F900BFA349384603F02A
:1006B00099F90028F9D0290A384603F002F900BF59
:1006C0009D49891C384603F08DF90028F8D0E9B21D
:1006D000384603F0F6F800BF9749891C384603F006
:1006E00081F90028F8D00121384603F09AF800BFBC
:1006F0009049384603F076F90028F9D001224146A6
:10070000384603F0E4F800BF8A49491C384603F034
:1007100069F90028F8D018E0012C07D100213846EB
:1007200003F097F80121384603F087F800BF8149AC
:100730003F31384603F056F90028F8D0384603F028
:10074000C2F83070761C601E84B2002CE4D1012106
:10075000384603F07EF8002088E72DE9F041064690
:100760000F4614461D460121304603F05AF800BFDB
:100770007049304603F036F90028F9D00022394696
:10078000304603F0A4F800BF6B49304603F02AF965
:100790000028F9D0210A304603F093F800BF6649DB
:1007A000891C304603F01EF90028F8D0E1B230462B
:1007B00003F087F800BF6049891C304603F012F946
:1007C0000028F8D02946304603F07BF800BF5A498C
:1007D000891C304603F006F90028F8D00121304684
:1007E00003F02BF839463046FFF714FF4FF47A70C8
:1007F000FFF709FF0020BDE8F0812DE9F04707462B
:10080000884615461C46DDF8209000260BE014F8BB
:10081000013B2A46691C8DB241463846FFF79DFFD1
:1008200008B1701CC6B2B9F10000A9F101011FFAAC
:1008300081F9ECD116B10120BDE8F0870020FBE77B
:10084000F8B506460C46154623460022AE2136482A
:100850000095FFF702FFF8BDF8B504460D461646B1
:100860002B462246AE2130480096FFF7C6FFF8BD62
:1008700038B5002400203149088009E06B20304958
:100880002E4A128888542D480088401C2B49088025
:100890002A4800886428F1DB2AA000F080FC40F69A
:1008A000B830274B0022AE2100901F48FFF7A5FF6C
:1008B000012440F6B830284B0022AE2100901A489F
:1008C000FFF7CBFE00BF40F6B83223491C4804F0C6
:1008D00099FD28B900BF214620A000F060FC38BD7A
:1008E000002400201549088016E01B481349098898
:1008F000405C6B2801D1012000E00020044616482E
:100900000E490988425C214617A000F048FC0B48BC
:100910000088401C09490880084800886428E4DBF6
:1009200000BFDCE7000C014000540040A08601003D
:100930000004001001000300820007001C000020DA
:10094000CC00002053746172742044656275672086
:10095000455050524F4D0000840C00205374617478
:100960007573202564000000416464726573732010
:100970002564202D20256400F4480078401E00EBFB
:100980004000F2498881704710B50122EF490020EC
:10099000EF4B1B689847FFF7EFFF10BD01B5012231
:1009A00069460020EB4B1B689847FFF7EDFF08BD39
:1009B0002DE9F84305460E4617469846012000905B
:1009C000E3480660E3480760E3480560E348C0F891
:1009D0000080DF48006808B1FFF7D6FFDE480068F6
:1009E00010B1DD4800688047DA48006800283AD036
:1009F000D6480078AA280CDD01200090FFF7BCFF44
:100A0000012269460020D34B1B6898470120CF493B
:100A1000087064200090002423E0CC48401C005D56
:100A200064280BDD6421C948401C015564200090F6
:100A3000601C01226946C74B1B689847C348401C8D
:100A4000005D32280BDA3221C048401C01553220AB
:100A50000090601C01226946BE4B1B689847601CD1
:100A6000C4B2032CD9DB00F0C2FB0020BDE8F88340
:100A700070B5002422E0B549491C085D06F0FEFC73
:100A80000646B74906F01CFC0546B649284606F05E
:100A900009FD0546284606F0D5FCAC49091D095D4F
:100AA000884203DDA948001D005D02E0284606F0EB
:100AB000C9FCC1B2A548001D0155641C032CDADB3A
:100AC00070BD70B588B004460D4616461822A6497A
:100AD00002A804F008FD0020019004EB440102AAE2
:100AE00088189E49096888474FF47A7105FB01F020
:100AF00001F0A9FA08B070BDF8B504460D461646D7
:100B000000200090642C01DD642000E020468DF878
:100B10000000642D01DD642000E028468DF801000E
:100B2000642E01DD642000E030468DF802000322CF
:100B300069460120874B1B6898479DF800108BA0E1
:100B400000F02DFB9DF801108DA000F028FB9DF812
:100B5000021090A000F023FBF8BD1FB57B48407A3F
:100B60007A49097A794AD279784BDB78CDE9003233
:100B7000CDE9021075488378427801788AA000F0A8
:100B80000EFB1FBD70B505460C46FE2000F098FB1D
:100B9000284600F095FB204600F092FBEF2000F085
:100BA0008FFB70BD38B54FF4FA74002322466946B6
:100BB0008748006800F022FE01286FD19DF80000F0
:100BC000CA286DD00CDC34282BD004DC302810D09F
:100BD000332875D113E0C82834D0C928F9D14DE0A5
:100BE000CB2871D0CC287FD0CD286CD0CE28F0D1A6
:100BF0009AE05648001D594909688847A3E09DF8C6
:100C000003209DF802109DF80100FFF775FF0322F5
:100C10004E49491C01204E4B1B689847FFF79DFF2A
:100C200091E0012049498872FFF797FF9DF8032062
:100C30009DF802109DF80100FFF743FF0020434993
:100C4000887280E09DF80100FFF7A8FEFFF79CFE88
:100C50003E4800789DF80110884207D10121D0203C
:100C6000FFF790FF5BA000F09AFA06E05FA000F0AB
:100C700096FA0021D020FFF785FF64E061A000F024
:100C80008EFAFFF781FE3148017865A000F087FAFF
:100C90002E480178C920FFF775FF54E054E0FFE7C4
:100CA00001202A4988720121CA20FFF76BFF052223
:100CB00004210020FFF705FF00202449887242E04C
:100CC00040E001E010E01FE001202049887201218E
:100CD000CB20FFF757FF052204210220FFF7F1FE8A
:100CE00000201A4988722EE00120184988720121DB
:100CF000CC20FFF747FF052204210846FFF7E1FE5D
:100D00000020124988721EE00120104988720121DA
:100D1000CD20FFF737FF052202210620FFF7D1FE85
:100D200000200A4988720EE09DF801201146104605
:100D3000FFF7E2FE03220549491C0120044B1B6812
:100D4000984700E000BF00BF38BD00003C180020FD
:100D50002000002024000020280000202C0000207B
:100D60000000C84200007E434476000856616C755E
:100D700065207363616C6520313A202564000000B2
:100D800056616C7565207363616C6520323A20256D
:100D90006400000056616C7565207363616C6520AA
:100DA000333A2025640000007B69643A25642C6D89
:100DB00061783A5B25642C25642C25645D2C746570
:100DC00073743A5B25642C25642C25645D7D0000DA
:100DD0009C000020577269746520616464726573B9
:100DE0007320737563636573730D0A0057726974BA
:100DF000652061646472657373206661696C0D0AB5
:100E000000000000486176652072656D6F74652092
:100E10007265616420616464726573730D0A000019
:100E20004944204C696768743A202564000000003A
:100E300030B587B004460025374800683749B0FB15
:100E4000F1F0401E85B2FE20ADF81400ADF8105050
:100E50000020ADF81600ADF8120004A9204603F0FA
:100E600071F90120ADF802000020ADF80800ADF8DE
:100E700006006020ADF800006946204603F09FF9A7
:100E80000821204603F0EAFD6946204603F0D9F91F
:100E90000821204603F0EBFD6946204603F01EFAC8
:100EA0000821204603F0F0FD0121204603F0A6FDB5
:100EB0000121204603F0A2FC07B030BD08B5012196
:100EC0000D2002F063FF0121022002F06CFFC02020
:100ED000ADF8000018208DF8030003208DF8020003
:100EE00069460F4802F094FA0120ADF80000694607
:100EF0000C4802F08DFA0C48FFF79AFF08BD017804
:100F0000094A343211804178074A3C321180817895
:100F1000121F118070470000B8000020C0D40100EB
:100F200000080140000C01400004004008B54FF4E7
:100F3000E06002F09FF91B208DF8000000208DF882
:100F4000020001208DF80300684602F098F926207F
:100F50008DF8000001208DF802008DF8030068462E
:100F600002F08DF908BD10B504466CB15D4901224F
:100F7000486840F2255103F0FAFF5A4901220868F7
:100F8000022103F056FC0CE056490022486840F26A
:100F9000255103F0ECFF534900220868022103F0B9
:100FA00048FC10BD2DE9F04F8BB083468A464D4872
:100FB000C0F800B0C0F804A000204A4988604FF68D
:100FC000FF70ADF818004848006805F0ECFF804657
:100FD0000022464B05F062FE06460022444B06F016
:100FE00085F8044605F0B2FF80B2ADF81400002089
:100FF000ADF81A00ADF8160005A9584603F0A2F89E
:101000000020ADF820000220ADF822000120ADF84C
:1010100024000020ADF82600ADF8280008A95846A5
:1010200003F06EFB5021584603F022FC0421584681
:1010300003F066FE8021584603F06BFE01215846FE
:1010400003F0DCFB2B4801900020ADF808004FF4C2
:101050000050ADF80A000020ADF80C00ADF810000B
:101060000420ADF80E0001A9504603F0E8FE01216E
:10107000504603F070FF0BB0BDE8F08F08B50121BA
:1010800040F6010002F082FE0121480402F08BFECE
:101090000121042002F07AFE0820ADF8000048206B
:1010A0008DF803006946144802F0B2F90420ADF847
:1010B00000008DF8030069460F4802F0A9F94FF4CB
:1010C0008070ADF8000069460B4802F0A1F90B49A9
:1010D0000B48FFF767FFFFF729FF0120FFF743FFEA
:1010E00008BD00004C180020B800002080842E416C
:1010F0000000F03F90D00300000801400044004091
:10110000002C014010B586B004460121092002F0F0
:101110003DFE0121880402F046FE01940020ADF856
:101120000800ADF80A00ADF80C00ADF810000C2076
:10113000ADF80E0018208DF817004FF48060ADF860
:10114000140003208DF8160005A91E4802F060F96E
:1011500004208DF817004002ADF8140005A91948C5
:1011600002F056F901A9184803F069FE012116485A
:1011700003F0F1FE06B010BD10B504460BE000BF51
:101180008021114803F0C2FF0028F9D014F8011B98
:101190000D4803F04DFF20780028F0D110BD0FB4AA
:1011A00000B5B3B035A8009001A8009A349904F0B6
:1011B00017F90020009001A8FFF7DEFF33B05DF8BB
:1011C00014FB0000000C01400048004010B504462C
:1011D00034B1012240F22551534803F0C8FE05E026
:1011E000002240F22551504803F0C1FE10BD00B569
:1011F00087B00121052002F0C9FD0121880302F01A
:10120000C5FD18208DF817004FF40070ADF81400DC
:1012100003208DF8160005A9444802F0F9F80420CF
:101220008DF817000002ADF8140005A93F4802F040
:10123000EFF84FF4E13001900020ADF80800ADF870
:101240000A00ADF80C00ADF810000C20ADF80E004F
:1012500001A9354803F0F3FD0121334803F07BFE7B
:101260000121314803F0FAFE00212F4803F039FF35
:1012700001212D4803F03EFF25208DF818000220A3
:101280008DF81A0001208DF81B0006A801F0F7FF69
:101290000120FFF79BFF07B000BD10B504460BE02F
:1012A00000BF8021204803F031FF0028F9D014F856
:1012B000011B1D4803F0BCFE20780028F0D110BDB2
:1012C00010B5044600BF8021174803F01FFF002817
:1012D000F9D02146144803F0ABFE10BD10B504460A
:1012E0000BE000BF8021104803F010FF0028F9D068
:1012F00014F8011B0C4803F09BFE20780028F0D165
:1013000010BD0FB400B5B3B035A8009001A8009A85
:10131000349904F065F80020009001A8FFF7BDFFA4
:1013200033B05DF814FB00000038014000080140B4
:1013300000F1080141604FF0FF31816000F10801C8
:10134000C1600161002101607047002101617047A7
:1013500042684A6093688B60936859609160086145
:1013600003685B1C0360704710B502460B685C1C89
:101370000CB9106907E002F1080000E04068446819
:1013800024689C42FAD944684C604C68A16088602B
:1013900041600A611468641C146010BD01460A694A
:1013A000D1E901309860D1E9010358605068884262
:1013B00001D188685060002008611068401E1060EC
:1013C0001068704770B505460E462C4601F0BEFD0C
:1013D000D4E90F12206801FB020060600020A063C6
:1013E0002068A060E06B401E226C216800FB0210A8
:1013F000E060FF2084F8440084F845009EB920692D
:1014000008B9012000E00020A8B904F1100001F0A3
:10141000AAF880B14FF08050F7490860BFF34F8FB2
:10142000BFF36F8F07E004F11000FFF781FF04F1B5
:101430002400FFF77DFF01F098FD012070BD2DE92C
:10144000F04106460D4617469846069C0DB92460A5
:1014500000E02760E663256401212046FFF7B2FF24
:10146000BDE8F0812DE9F84307460D4690460DB9D9
:10147000002601E007FB05F606F1480001F003FE37
:10148000044644B104F1480943464A4629463846D1
:101490000094FFF7D4FF2046BDE8F88370B50446FA
:1014A00001F054FD94F9455010E0606A08B901203C
:1014B00000E0002038B904F1240001F054F818B11C
:1014C00001F0E5F800E003E0681E45B2002DECDC19
:1014D00000BFFF2084F8450001F047FD01F036FD14
:1014E00094F9445010E0206908B9012000E0002080
:1014F00048B904F1100001F036F808B101F0C7F85E
:10150000681E45B200E001E0002DECDC00BFFF20CA
:1015100084F8440001F029FD70BD70B5054601F066
:1015200015FDA86BE96B884201D1012400E000247D
:1015300001F01BFD204670BD2DE9F04104460F4629
:1015400015464FF00008A66B206C28B37DB93946CC
:10155000226CA06803F082FF216CA0680844A060A0
:10156000D4E90110884217D32068A06014E03946FE
:10157000226CE06803F072FF216CE068401AE060C2
:101580002168E068884203D2216C6068401AE060FC
:10159000022D01D106B1761E701CA0634046BDE845
:1015A000F0812DE9FF4383B0074688461D464FF082
:1015B00000093C4600BF01F0C9FCA06BE16B88420A
:1015C00001D3022D28D12A4641462046FFF7B4FF19
:1015D0000646606A08B9012000E0002068B904F1FD
:1015E000240000F0C0FF88B14FF0805082490860AD
:1015F000BFF34F8FBFF36F8F08E03EB14FF08050C5
:101600007D490860BFF34F8FBFF36F8F01F0ADFCD2
:10161000012007B0BDE8F083059818B901F0A5FCDA
:101620000020F6E7B9F1000F04D101A800F0FEFF99
:101630004FF0010901F099FC00F0CAFC01F086FCB2
:1016400094F94400401C10B9002084F8440094F937
:101650004500401C10B9002084F8450001F085FCCD
:1016600005A901A800F0E9FFF0B92046FFF755FFF2
:10167000A0B104F11000059900F041FF2046FFF7EA
:101680000DFF00F0D9FB002895D14FF080505A494A
:101690000860BFF34F8FBFF36F8F8CE72046FFF7D3
:1016A000FDFE00F0C9FB86E72046FFF7F7FE00F0DD
:1016B000C3FB0020ADE72DE9F05F05468A461646DC
:1016C0001F462C4600BFBF21EFF3118081F3118824
:1016D000BFF34F8FBFF36F8F00BF8146A06BE16BED
:1016E000884201D3022F20D194F945B03A465146A1
:1016F0002046FFF721FF0BF1010070B9606A08B9BD
:10170000012000E0002068B904F1240000F02BFF64
:1017100040B13EB10120306004E00BF1010040B265
:1017200084F845004FF0010801E04FF0000800BFC9
:1017300089F3118800BF4046BDE8F09F2DE9F047CE
:1017400005460E462C4600BFBF21EFF3118081F302
:101750001188BFF34F8FBFF36F8F00BF8046D4F85F
:101760003890E06B48451DD994F945A009F1010076
:10177000A0630AF1010070B9606A08B9012000E0B5
:10178000002068B904F1240000F0EDFE40B13EB144
:101790000120306004E00AF1010040B284F8450005
:1017A000012700E0002700BF88F3118800BF3846FA
:1017B000BDE8F08770B5054601F0C8FBA86B08B915
:1017C000012400E0002401F0D0FB204670BD70B57C
:1017D00004460D46206C70B1216CE0680844E0605E
:1017E0006168E068884201D32068E0602846226C86
:1017F000E16803F033FE70BD04ED00E02DE9FF4722
:1018000082B0054689461E464FF0000A2C4600BFAE
:1018100001F09CFBD4F83880B8F1000F36D0E768AF
:1018200049462046FFF7D3FFB6B9A8F10100A063EF
:10183000206908B9012000E0002008BB04F1100075
:1018400000F091FEE0B14FF0805097490860BFF37F
:101850004F8FBFF36F8F13E0E760606A08B9012014
:1018600000E0002060B904F1240000F07CFE38B1F3
:101870004FF080508C490860BFF34F8FBFF36F8FDC
:1018800001F073FB012006B0BDE8F087049818B999
:1018900001F06BFB0020F6E7BAF1000F04D16846B7
:1018A00000F0C4FE4FF0010A01F05FFB00F090FB76
:1018B00001F04CFB94F94400401C10B9002084F85E
:1018C000440094F94500401C10B9002084F84500FC
:1018D00001F04BFB04A9684600F0AFFEF0B92046CA
:1018E000FFF768FFA0B104F12400049900F007FE9F
:1018F0002046FFF7D3FD00F09FFA002888D14FF073
:10190000805069490860BFF34F8FBFF36F8F7FE747
:101910002046FFF7C3FD00F08FFA79E72046FFF776
:10192000BDFD00F089FA2046FFF744FF0028EED005
:101930000020A8E72DE9F05F05468A4616462C46AA
:1019400000BFBF21EFF3118081F31188BFF34F8FE8
:10195000BFF36F8F00BF8046D4F83890B9F1000F05
:1019600021D094F944B051462046FFF730FFA9F149
:101970000100A0630BF1010070B9206908B90120D2
:1019800000E0002068B904F1100000F0ECFD40B167
:101990003EB10120306004E00BF1010040B284F858
:1019A0004400012700E0002700BF88F3118800BF32
:1019B0003846BDE8F09F2DE9F047054689462C469C
:1019C00000BFBF21EFF3118081F31188BFF34F8F68
:1019D000BFF36F8F00BF0746A06B48B1D4F80C80EF
:1019E00049462046FFF7F3FEC4F80C80012600E0CC
:1019F000002600BF87F3118800BF3046BDE8F0879E
:101A000070B5044601F0A2FAA56B01F0AEFA2846C3
:101A100070BD70B50446254601F098FAD5E90E1060
:101A2000461A01F0A2FA304670BD0146886B704735
:101A300070B504462546284601F083FB70BD01467B
:101A40008A6B0AB9012000E00020704701468A6BCA
:101A5000CB6B9A4201D1012000E0002070472DE9B4
:101A6000F04105460E4617462C4601F06FFA94F9F0
:101A70004400401C10B9002084F8440094F945004B
:101A8000401C10B9002084F8450001F06EFAA06BEC
:101A900028B93A46314604F1240000F052FD2046B0
:101AA000FFF7FCFCBDE8F08104ED00E010B5002478
:101AB00007E004EB8401FE4A02EB8100FFF738FCEB
:101AC000641C052CF5D3FB48FFF732FCFA48FFF7FE
:101AD0002FFCFA48FFF72CFCF948FFF729FCF948DE
:101AE000FFF726FCF348F8490860F348F749086017
:101AF00010BD10B5044601F029FAF5480068401CF5
:101B0000F3490860F348006840B9F24804600846A9
:101B1000006801280DD1FFF7C9FF0AE0EE48006810
:101B200038B9EC480068C06AE16A884201D8E948DF
:101B30000460EA480068401CE849086094F82C10EA
:101B400001208840E64909680843E5490860E16AE0
:101B500001EB8101D64A02EB8100211DFFF7F8FB62
:101B600001F003FADC48006868B1DA480068C06A2E
:101B7000E16A884207D24FF08050DA490860BFF32B
:101B80004F8FBFF36F8F10BD2DE9FF5F80460E466C
:101B90009146DDE90E7A109CA9F10100216B01EB61
:101BA000800B2BF0070B002507E0715D04F134007A
:101BB0004155705D00B902E06D1C102DF5D300BFDA
:101BC000002143200155052F00D30427E762201D83
:101BD000FFF7BBFB04F11800FFF7B7FB2461C7F167
:101BE0000500A06164620020606484F848004146FA
:101BF0005846039A01F07DF92060BAF1000F01D038
:101C0000CAF80040BDE8FF9F2DE9FF4F85B0804630
:101C100089461746DDE912ABB80001F034FA0646F2
:101C200056B14C2001F02FFA04460CB1266304E0B3
:101C3000304601F086FA00E000247CB10020CDE9B6
:101C400000ABCDE902403A4649464046089BFFF7C3
:101C50009BFF2046FFF74DFF012501E04FF0FF35C8
:101C6000284609B0BDE8F08F97490968096809B9A5
:101C7000012100E0002121B14FF0FF319A4A1160AB
:101C800006E091490968C968C868974A41681160C7
:101C9000704710B50446206B01F053FA204601F05E
:101CA00050FA10BD70B5054601F050F915B98948D4
:101CB000006800E028460446201DFFF76FFB78B956
:101CC000E06A00EB80007A4951F8200040B994F8AE
:101CD0002C100120884082490968814380480160B6
:101CE000A06A18B104F11800FFF758FB7B480068A0
:101CF000401C7A49086077480068844209D1211D58
:101D00006F48FFF725FB79480068401C7749086059
:101D100009E06F480068401E6D4908602046FFF7E3
:101D2000B8FFFFF7A1FF01F020F96B48006858B138
:101D300068480068844207D14FF0805069490860C4
:101D4000BFF34F8FBFF36F8F70BD2DE9F0410027B8
:101D500067480068002863D166480068451C6548EC
:101D600005608DB95848D0F8008058480068564939
:101D700008605648C0F800805F480068401C5E4913
:101D80000860FFF771FF00BF5748006885423BD3EA
:101D900000BF4D480068006808B9012000E000203D
:101DA00020B14FF0FF30504908602CE046480068F1
:101DB000C068C4686668B54202D24B48066022E03B
:101DC000201DFFF7EBFAA06A18B104F11800FFF725
:101DD000E5FA94F82C10012088404149096808432D
:101DE0003F490860E16A01EB8101314A02EB810061
:101DF000211DFFF7ADFA3749E06A0968C96A8842D0
:101E0000C7D30127C5E700BF32480068C06A00EBAE
:101E10008000274951F82000012800D9012704E05B
:101E200036480068401C354908603548006800B1F4
:101E300001273846BDE8F08170B50024002601F086
:101E400085F82B480068401E29490860084600684C
:101E500000287BD11E480068002877D024E017486E
:101E6000C068C46804F11800FFF798FA201DFFF756
:101E700095FA94F82C100120884019490968084304
:101E800017490860E16A01EB8101094A02EB810010
:101E9000211DFFF75DFA0F49E06A0968C96A8842A7
:101EA00002D30120164908600448006850BB2AE0AC
:101EB00058180020BC180020D0180020E41800207A
:101EC000F81800200C1900203400002038000020F1
:101ED00040000020300000204C0000205C0000206A
:101EE0004800002004ED00E0600000203C000020DD
:101EF000680000204400002058000020500000200E
:101F00005400002001E0012000E000200028A6D0BD
:101F10000CB1FFF7A9FEFD48056865B100BFFFF7EA
:101F200014FF10B10120FA4908606D1E002DF6D192
:101F30000020F6490860F648006838B101263007ED
:101F4000F4490860BFF34F8FBFF36F8F01F00DF8B6
:101F5000304670BD2DE9F04105460E46EE48076853
:101F6000EE480068001DFFF719FA50B9EB48006809
:101F700090F82C1001208840E94909688143E8481D
:101F80000160681C38B936B1E4480168091DE548AC
:101F9000FFF7DEF91AE07C19E04800684460BC42B3
:101FA00007D2DE480168091DDF480068FFF7DCF949
:101FB0000CE0DA480168091DDC480068FFF7D4F935
:101FC000DB480068844201D2D9480460BDE8F08152
:101FD000D8480068401CD749086070472DE9F04791
:101FE000044688464FF00009FFF7F2FFCA4806682A
:101FF000206800EB08052068B04207D92068A84295
:102000000BD9B54209D94FF0010906E02068A84272
:1020100001D8B54201D94FF001092560B9F1000F8F
:1020200003D0A81B0021FFF795FFFFF705FF074628
:102030003FB94FF08050B7490860BFF34F8FBFF3EF
:102040006F8FBDE8F08770B50446002544B1FFF7F7
:10205000BFFF00212046FFF77DFFFFF7EDFE05469D
:102060003DB94FF08050AB490860BFF34F8FBFF3CD
:102070006F8F70BD70B5044600F068FF14B9A748B3
:10208000006800E020460646F56A00F06EFF28462C
:1020900070BD70B5024600BFBF25EFF3118485F314
:1020A0001188BFF34F8FBFF36F8F00BF214612B966
:1020B0009A4C246800E014462346D86A00BF81F396
:1020C000118800BF70BD2DE9F04780460D464FF0E6
:1020D0000009052D00D3042500F038FFB8F1000FEA
:1020E00002D18E48006800E040460446E66AAE42EF
:1020F00051D0B5420BD98948006884420DD0874839
:102100000068C06AA84208D84FF0010905E083487A
:102110000068844201D14FF00109E76AE562A069D5
:1021200000F0004010B9C5F10500A06107EB870180
:10213000814A02EB81016069884201D1012000E0FF
:102140000020E0B1201DFFF729F930B90120B84087
:102150007349096881437248016094F82C1001208A
:1021600088406F49096808436D490860E16A01EBDE
:102170008101714A02EB8100211DFFF7E9F8B9F1F5
:10218000000F07D04FF0805062490860BFF34F8FB7
:10219000BFF36F8F00BF00F0E8FEBDE8F087654831
:1021A000006818B101205A4908601DE00020584914
:1021B00008605B480068B0FA80F0C0F11F0101EBD5
:1021C00081025D4B03EB820042685268426000F17D
:1021D00008024368934202D14268526842604268F2
:1021E000D2684E4B1A6000BF704770B5054600F0CC
:1021F000ADFE15B94948006800E028460446201D98
:10220000FFF7CCF878B9E06A00EB80004A4951F852
:10221000200040B994F82C100120884040490968FA
:1022200081433F480160A06A18B104F11800FFF72C
:10223000B5F8211D3B48FFF78BF800F096FE3F48AC
:10224000006828B100F082FEFFF70EFD00F08DFE61
:1022500032480068844217D13848006840B14FF0D6
:1022600080502C490860BFF34F8FBFF36F8F0BE096
:102270002C48006832490968884203D10020274968
:10228000086001E0FFF78BFF70BD10B5014600202C
:102290000A46244C5369A34201D1012300E00023E4
:1022A00073B1284C936AA34201D1012300E00023BB
:1022B00033B9936A0BB9012300E0002303B1012075
:1022C00010BD70B505462C46F4B31448006884422E
:1022D0004BD000F03BFE2046FFF7D7FFA8B3201DF0
:1022E000FFF75CF894F82C10012088400C4909682D
:1022F00008430B490860E16A01EB81010E4A02EBD9
:102300008100211DFFF724F804491FE05000002040
:102310005400002004ED00E04400002030000020C4
:10232000480000200C190020380000203400002054
:102330006000002068000020581800204C00002099
:1023400040000020E41800200FE00CE0E06A09687B
:10235000C96A884207D34FF08050FE490860BFF336
:102360004F8FBFF36F8F00F000FE70BD2DE9F0417D
:1023700006460027344600BFBF21EFF3118081F3EA
:102380001188BFF34F8FBFF36F8F00BF0546204604
:10239000FFF77BFF20B3F0480068E0B9EF49E06A3F
:1023A0000968C96A884200D30127201DFEF7F6FF9D
:1023B00094F82C1001208840E94909680843E8494D
:1023C0000860E16A01EB8101E64A02EB8100211D10
:1023D000FEF7BEFF04E004F11801E348FEF7B8FF82
:1023E00000BF85F3118800BF3846BDE8F08170B5A5
:1023F00023E0FFF7EDFDDD48006808B9012000E0AB
:1024000000200546FFF718FDBDB900F09FFDD74835
:10241000C068C468201DFEF7C1FFD5480068401E93
:10242000D3490860D3480068401ED249086000F0D4
:102430009CFD2046FFF72DFC00BFCE480068002819
:10244000D7D170BD00BFFFF7D2FFC6480068012892
:10245000F9D94FF08050BF490860BFF34F8FBFF3E9
:102460006F8FF0E71CB5C44800210B468022CDE9F0
:102470000010C2A1C348FFF7C7FB0446012C02D1DC
:1024800000F09FFC0446012C14D100BFBF2080F354
:102490001188BFF34F8FBFF36F8F00BF4FF0FF3036
:1024A000B94908600120B94908600020B8490860AE
:1024B00000F036FD1CBD10B500BFBF2080F31188B1
:1024C000BFF34F8FBFF36F8F00BF0020AF4908608D
:1024D00000F03BFD10BDAE49086870470021AC4AD2
:1024E00010687047A24800687047014611B99B48C0
:1024F000006800E00846024602F13400704770B5FB
:1025000005460C469548016818312846FEF72CFF11
:1025100001212046FFF71EFD70BD70B506460C4632
:10252000154644F000408D49096888618B48016870
:1025300018313046FEF70CFF01212846FFF70AFD4F
:1025400070BD70B506460D461446844801681831C2
:102550003046FEF7FDFE0CB14FF0FF352146284610
:10256000FFF7F8FC70BD70B50646F068C46804F16A
:102570001800FEF713FF78480068A8B9201DFEF781
:102580000DFF94F82C100120884075490968084314
:1025900073490860E16A01EB8101724A02EB810034
:1025A000211DFEF7D5FE04E004F118016E48FEF788
:1025B000CFFE6A49E06A0968C96A884204D90125E0
:1025C00001207449086000E00025284670BD2DE90F
:1025D000F04105460F4647F000402860EC68284669
:1025E000FEF7DCFE201DFEF7D9FE94F82C1001202A
:1025F00088405B490968084359490860E16A01EB72
:102600008101584A02EB8100211DFEF7A1FE5349CA
:10261000E06A0968C96A884204D9012601205D4937
:10262000086000E000263046BDE8F0815A4909689C
:102630000160574909684160704770B504460D460E
:1026400000F084FC524802682868401C08B9002643
:1026500019E0514920680968884204D060689042B6
:1026600001D801260FE06068101A2968884209D253
:1026700028686168511A401A28602046FFF7D6FF83
:10268000002600E0012600F070FC304670BD0120FD
:102690004049086070473D49096809B9012005E0D3
:1026A0002D49096809B9022000E0002070472B4934
:1026B0000968886929490968C96AC1F10501274A79
:1026C00012689161704770B506460D4600F03EFCF9
:1026D00022480068406C88B901202049096881F8C7
:1026E00048005DB101212846FFF734FC4FF08050CF
:1026F00018490860BFF34F8FBFF36F8F00F035FCB0
:1027000000F024FC15480068446C4CB126B1002050
:1027100012490968486403E0601E1049096848646A
:1027200000200E49096881F8480000F01EFC204690
:1027300070BD2DE9F0410746884614461D4600F05D
:1027400005FC0648006890F8480002283DD003497F
:10275000096823E004ED00E068000020300000205C
:102760004800002058180020E4180020F818002025
:10277000400000203C0000206400002049444C45FB
:102780000000000045240008600000204C000020EC
:1027900044000020540000205800002001F14400B3
:1027A000496CB94301600120B249096881F84800C9
:1027B0005DB101212846FFF7CDFB4FF08050AE49B7
:1027C0000860BFF34F8FBFF36F8F00F0CEFB00F0B8
:1027D000BDFB1CB1A7480068406C2060A54800689C
:1027E00090F84800012801D1002608E0A1490968B5
:1027F00001F14400496C21EA080101600126002032
:102800009C49096881F8480000F0AFFB3046BDE8FC
:10281000F0812DE9F04781460D4616461F464FF0E0
:10282000010A4C4600F092FB0FB1606C386094F8DE
:102830004880022084F84800052E17D2DFE806F011
:102840001503070B0D00606C284360640EE0606C9C
:10285000401C60640AE0656408E0B8F1020F01D032
:10286000656401E04FF0000A00E000BF00BFB8F16E
:10287000010F22D1201DFEF791FD94F82C100120AC
:1028800088407E49096808437C490860E16A01EB99
:1028900081017B4A02EB8100211DFEF759FD75493C
:1028A000E06A0968C96A884207D94FF080507249C6
:1028B0000860BFF34F8FBFF36F8F00F056FB504699
:1028C000BDE8F0872DE9F84F82460D4616461F46B3
:1028D000DDF828B001200090544600BFBF21EFF37F
:1028E000118081F31188BFF34F8FBFF36F8F00BF4B
:1028F00081460FB1606C386094F84880022084F8FB
:102900004800052E17D2DFE806F01503070B0D006F
:10291000606C284360640EE0606C401C60640AE0F8
:10292000656408E0B8F1020F01D0656401E00020A1
:10293000009000E000BF00BFB8F1010F2DD1514859
:102940000068A8B9201DFEF729FD94F82C1001207D
:1029500088404A490968084348490860E16A01EB30
:102960008101474A02EB8100211DFEF7F1FC04E0E2
:1029700004F118014448FEF7EBFC3E49E06A09689F
:10298000C96A884209D9BBF1000F03D00120CBF8F6
:10299000000002E001203D49086000BF89F3118872
:1029A00000BF0098BDE8F88F2DE9F04105460E46BE
:1029B0002C4600BFBF21EFF3118081F31188BFF3D4
:1029C0004F8FBFF36F8F00BF074694F848800220F7
:1029D00084F84800606C401C6064B8F1010F2AD193
:1029E00028480068A8B9201DFEF7D8FC94F82C10E0
:1029F0000120884021490968084320490860E16AAC
:102A000001EB81011E4A02EB8100211DFEF7A0FCB3
:102A100004E004F118011C48FEF79AFC1549E06A2D
:102A20000968C96A884206D916B10120306002E0FF
:102A300001201649086000BF87F3118800BFBDE878
:102A4000F08170B5054615B90A48006800E02846CF
:102A5000064600F07BFA96F84800022804D10020D0
:102A600086F84800012400E0002400F07EFA2046A9
:102A700070BD00003000002004ED00E048000020A0
:102A80005818002068000020E4180020540000209E
:102A90002DE9F04104460D4616461F464FF000084A
:102AA00065602461B5420CD8F01BA169884202D34D
:102AB0004FF0010811E0211DF8480068FEF754FCB2
:102AC0000BE0BE4204D2BD4202D34FF0010804E045
:102AD000211DF3480068FEF747FC4046BDE8F08141
:102AE0002DE9FE4305460C4616461F46DDF82880B4
:102AF0004FF00009EB48006810B30094019602956E
:102B0000062C15DAFFF7C7FD022808D1002342463C
:102B10006946E4480068FEF744FD814610E0002362
:102B20001A466946DF480068FEF73BFD814607E02C
:102B300000233A466946DB480068FEF7BCFD814643
:102B40004846BDE8FE832DE9F84326E0D4480068F6
:102B5000C0680568D2480068C068C468201DFEF7D8
:102B60001DFC2046616A8847E069012815D1A069EB
:102B70004619AE4207D966602461211DC848006825
:102B8000FEF7F2FB09E0002003462A4601460090CA
:102B90002046FFF7A5FF804600BFC14800680068D7
:102BA00008B9012000E000200028CFD0BC48076809
:102BB000BA480068BA490860B8480760BDE8F883B9
:102BC00070B50446FFF787FC0546B74800688542A4
:102BD00004D2FFF7B8FF0120206001E00020206050
:102BE000B1480560284670BD70B586B04DE00398C9
:102BF00000284ADB059C606908B9012000E000203C
:102C000010B9201DFEF7CAFB02A8FFF7D9FF054641
:102C100003980A2837D2DFE800F009050725273294
:102C20000608262800BF00BF00BF00BF0498A269A5
:102C3000811803462A462046FFF72AFF88B120461E
:102C4000616A8847E06901280BD100200090049850
:102C5000A1694218002319462046FFF741FF0646A6
:102C600000BF11E000BF0FE000BF0498A061A069A1
:102C700041192B462A462046FFF70AFF04E020466A
:102C800000F05FFA00E000BF00BF00231A4603A96E
:102C900084480068FEF7B2FD0028A8D106B070BDD8
:102CA000F8B505460E467E480068C068C468201D19
:102CB000FEF774FBE069012811D1A06941192B4688
:102CC00032462046FFF7E4FE48B1002003462A467C
:102CD000014600902046FFF703FF074600BF20464D
:102CE000616A8847F8BDF8B505460C46FFF770F9EC
:102CF0006846FFF765FF0646009820BB44B9B54219
:102D000006D8FFF799F831462846FFF7C9FF1CE0BF
:102D10003CB162480068006808B9012000E000206A
:102D20000446A91B22465F480068FEF798FEFFF79D
:102D300083F850B94FF080505C490860BFF34F8F63
:102D4000BFF36F8F01E0FFF777F8F8BD0146544AF3
:102D5000126812680AB9012200E000220A600A68BB
:102D600022B94F4A1268D268106800E0002070470C
:102D700008B500BF6846FFF7E9FF04462046009902
:102D8000FFF7B1FFFFF730FFF4E710B500F0DEF812
:102D90004448006890B94648FEF7CAFA4548FEF72D
:102DA000C7FA43483E49086042483C49086000224F
:102DB0000C210A20FEF756FB3A49086000F0D5F8CE
:102DC00010BD1CB50024FFF7E0FF3648006850B185
:102DD0003948032100238022CDE9001037A139486A
:102DE000FEF712FF044620461CBD2DE9F0470546BC
:102DF0000E4617469846DDE908945CB1FFF7C5FF1B
:102E00002560A661E761C4F82080C4F82490201DE5
:102E1000FEF79BFABDE8F0872DE9FC4705460E4614
:102E200017469846DDF82890282000F02CF9044633
:102E30003CB143463A4631462846CDE90094FFF777
:102E4000D4FF2046BDE8FC871B4800687047014658
:102E50000A469069704701460A4650687047014625
:102E60000A461068704770B50446264600F06EF8B2
:102E7000706908B9012000E0002080F0010500F031
:102E800074F8284670BD70B50446264600F05EF81A
:102E9000356A00F06AF8284670BD00007000002016
:102EA0006C000020740000207C00002004ED00E095
:102EB000201900203419002078000020546D722061
:102EC00053766300712D000870B504460D46264602
:102ED00000F03CF8356200F048F870BD00BFBF203C
:102EE00080F31188BFF34F8FBFF36F8F00BF00BF18
:102EF000FEE7001F4FF080730360001F21F0010305
:102F00000360001F2C4B03601438026020387047A8
:102F10004BF67F304FF0E021486107200861704791
:102F200010B52648006840F47F0024490860084630
:102F3000006840F07F400860FFF7EAFF002020496A
:102F40000860FDF789F9002010BD704700BFBF2061
:102F500080F31188BFF34F8FBFF36F8F00BF184806
:102F60000068401C16490860704715480068401EFC
:102F7000134908600846006820B9002080F31188D2
:102F800000BF00BF704710B500BFBF2080F311889D
:102F9000BFF34F8FBFF36F8F00BFFEF7D6FE20B198
:102FA0004FF0805005491C39086000BF002080F3B5
:102FB000118800BF10BD0000DD2E000820ED00E0EC
:102FC0008000002010B50146714800E000680368E9
:102FD0008B42FBD30246436813448B4204D14368BF
:102FE0004C682344436001460A464B681344046816
:102FF000A34211D1674C03682468A34208D04B68F0
:103000000468646823444B6003681B680B6005E038
:10301000604B1B680B6001E003680B60884200D0C6
:10302000016010BD30B54FF4A0535B4800F00704B9
:103030002CB1C01D20F00700574C041B1B1B02467F
:10304000534C22600024524D6C60D018083820F098
:103050000700504C206000244E4D2D686C604D4D93
:103060002D682C601146441A4C604A4C24680C6050
:103070004A4D4C682C604A4D4C682C604FF000441F
:10308000484D2C6030BD2DE9F04105464FF0000859
:10309000FEF79EFF3F48006808B9FFF7C3FF4148AD
:1030A00000682840002847D145B1083505F00700E1
:1030B00020B105F00700C0F108000544002D3BD009
:1030C00037480068854237D8314E3046046801E001
:1030D000264624686068A84202D220680028F7D1FA
:1030E0002C480068844227D0306800F10808206826
:1030F00030606068401B102807D967196068401B62
:10310000786065603846FFF75DFF254960680968AB
:10311000081A23490860084600682049096888425F
:1031200003D21F4800681D4908601E49606809688D
:103130000843606000202060FEF77EFE4046BDE848
:10314000F08170B506463546D6B1083D2C46154986
:1031500060680968084098B1206888B911496068BA
:10316000096888436060FEF733FF0D4960680968AD
:1031700008440B4908602046FFF724FFFEF75CFE79
:1031800070BD074800687047044800687047704782
:10319000840000208C0000204819002094000020AA
:1031A0009000002098000020FDF7F2F9FDF786FE60
:1031B0001A4B1B4A1B491C48FDF7FAFB00BFFDF7E1
:1031C000F1FCFCE71CB54FF41650FDF79BFF17A070
:1031D000FDF7E5FF194800231A46C821009018A002
:1031E000FFF71AFE18490860002204210520FEF7A7
:1031F00039F9164908600846006810B914A0FDF7AF
:10320000CEFF0020032103464FF40072CDE90010E9
:1032100015A11748FEF7F8FC1CBD0000FF0E0008C2
:1032200059080008410800087D100008496E6974BB
:10323000204D61696E5461736B000000C504000885
:1032400054696D6572000000A00000209C00002001
:103250004372656174652078444D585F517565759A
:1032600065204661696C00004D61696E00000000D8
:10327000A931000831490143314A1160704770B5E6
:10328000002100230F22C47804B32D4C246804F4D9
:10329000E064C4F5E064210AC1F10403CA40447843
:1032A00004FA03F18478144021430901254C06787F
:1032B000A155047804F01F050124AC4005786D1178
:1032C000AD0005F1E025C5F8004109E0047804F0FF
:1032D0001F050124AC401C4D0678761145F82640A8
:1032E00070BD1A4A0A400243154B1B1F1A607047F3
:1032F00039B1134A121D12680243114B1B1D1A608B
:1033000006E00F4A121D126882430D4B1B1D1A6006
:103310007047042808D14FF0E021096941F0040109
:103320004FF0E022116107E04FF0E021096921F040
:1033300004014FF0E0221161704700000000FA051F
:103340000CED00E000E400E080E100E080FFFF1F02
:1033500010B50446CC48844208D10121042000F075
:103360002FFD0021042000F02BFD46E0C7488442D9
:1033700008D10121082000F023FD0021082000F0E1
:103380001FFD3AE0C248844208D10121102000F01C
:1033900017FD0021102000F013FD2EE0BD488442EF
:1033A00008D10121202000F00BFD0021202000F099
:1033B00007FD22E0B848844208D10121402000F0F6
:1033C000FFFC0021402000F0FBFC16E0B3488442E3
:1033D00008D10121802000F0F3FC0021802000F0C2
:1033E000EFFC0AE0AE48844207D10121801500F0CD
:1033F000E7FC0021A01500F0E3FC10BD10B5012191
:10340000084600F0DDFC0021012000F0D9FC10BDD1
:103410002DE9F0410246002500260020002300246B
:10342000002791F803C00CF00F0591F803C00CF0D1
:10343000100CBCF1000F03D091F802C04CEA050556
:1034400091F800C0BCF1000F31D0146800202BE0CF
:103450004FF0010C0CFA00F3B1F800C00CEA0306BF
:103460009E4220D183004FF00F0C0CFA03F7BC43AF
:1034700005FA03FC4CEA040491F803C0BCF1280FE0
:1034800006D14FF0010C0CFA00FCC2F814C00AE09F
:1034900091F803C0BCF1480F05D14FF0010C0CFAB4
:1034A00000FCC2F810C0401C0828D1D31460B1F849
:1034B00000C0BCF1FF0F34DD546800202EE000F1A5
:1034C000080C4FF0010808FA0CF3B1F800C00CEA40
:1034D00003069E4221D183004FF00F0C0CFA03F734
:1034E000BC4305FA03FC4CEA040491F803C0BCF1A8
:1034F000280F05D100F1080C08FA0CF8C2F8148066
:1035000091F803C0BCF1480F07D100F1080C4FF04F
:10351000010808FA0CF8C2F81080401C0828CED325
:103520005460BDE8F0814FF6FF7101800221817087
:103530000421C17070470246002093680B400BB114
:10354000012000E0002070470146886880B2704783
:1035500002460020D3680B400BB1012000E00020A0
:1035600070470146C86880B2704701617047416189
:1035700070470AB1016100E041617047C160704766
:103580004FF480320A43826181618261826982697B
:10359000704702460020434B18684FF6807318406E
:1035A00040EA021008433F4B186070473E49C8612B
:1035B0007047F0B50A46002300240021002500F0E2
:1035C0000046B6F1004F02D1364EF16901E0354EAA
:1035D0007168C0F3034583B200F44016B6F5401F8E
:1035E00008D121F070612F4E766826F070662D4F5D
:1035F0007E6012E000F48016B6F5801F06D1032627
:1036000006FA05F4A14341F0706106E0460D36016B
:1036100003FA06F6B14341F0706122B1460D36015E
:1036200003FA06F6314300F00046B6F1004F02D12E
:103630001C4EF16101E01B4E7160F0BD30B50022FF
:103640008B071C0F0F2303FA04F2164B08338C1060
:1036500053F824309343134C08348D1044F825302C
:1036600023468C1053F824308C07240F00FA04F4FE
:1036700023430C4C08348D1044F8253030BD0A49E2
:10368000DC3108607047000000080140000C014078
:10369000001001400014014000180140001C0140CE
:1036A00000200140000001400000204210B5044607
:1036B000F748844209D10121480500F08EFB002122
:1036C0004FF4001000F089FB08E00121880500F0AC
:1036D00084FB00214FF4800000F07FFB10BD2DE93A
:1036E000F04385B004460D460026B1460427DFF8B6
:1036F000A483A6884FF6C0700640684600F0D9FA49
:10370000DDF80880E448B8FBF0F01FFA80F946EADB
:103710000906A68020884FF6FE710840208000260A
:10372000DE49286888420CD828684000B8FBF0F0D1
:1037300087B2042F00DA04273E4309F101002084F8
:1037400027E0E8884BF6FF71884206D1286800EB35
:103750004000B8FBF0F087B209E0286800EBC00138
:1037600001EB0010B8FBF0F087B247F48047C7F3D5
:103770000B0008B947F0010747F4004006434FF437
:10378000967009FB00F04FF47A7190FBF1F0401C49
:103790002084A683208840F00100208026884FF6F0
:1037A000F5300640A8886989084306432680A88921
:1037B00029890843208105B0BDE8F08341F28831B2
:1037C0000160002181804BF6FF71C18000210181E1
:1037D00041814FF480418181704721B1028842F0DC
:1037E0000102028004E002884FF6FE731A40028054
:1037F000704721B1828842F40062828004E08288AE
:103800004FF2FF731A408280704721B1828842F4E0
:103810008052828004E082884EF6FF731A408280D4
:10382000704721B1028842F48072028004E002886D
:103830004FF6FF631A400280704721B1028842F4BC
:103840000072028004E002884FF6FF531A400280A3
:10385000704721B1028842F48062028004E002884D
:103860004FF6FF331A40028070470A4600218189D3
:103870004FF60173194002F0FE031943818170472E
:1038800021B1828942F00102828104E082894FF6EF
:10389000FE731A408281704721B1028842F04002D3
:1038A000028004E002884FF6BF731A40028070471E
:1038B0001AB183880B43838002E083888B43838023
:1038C0007047018270470146088AC0B2704712B142
:1038D00041F0010102E04FF6FE731940018270478A
:1038E00008B502460020009000920098084400901D
:1038F0000098008808BD21B1028842F4004202808D
:1039000003E00288C2F30E0202807047B1F5006F37
:1039100004D1028842F40062028004E002884FF27F
:10392000FF731A4002807047B1F5005F04D102882E
:1039300042F40052028004E002884DF6FF731A4000
:103940000280704721B1028842F48052028004E074
:1039500002884EF6FF731A4002807047B1F5006F7F
:1039600004D1028842F40062028004E002884FF22F
:10397000FF731A400280704721B1028842F0200292
:10398000028004E002884FF6DF731A40028070471D
:103990000146088B0012704721B1028842F01002E4
:1039A000028004E002884FF6EF731A4002807047ED
:1039B00021B9028842F08002028004E002884FF6BA
:1039C0007F731A4002807047B1F5804F05D0828B1B
:1039D0004BF6FF731A40828303E0828B42F48042ED
:1039E0008283704770B50246002400250023002022
:1039F000958A138B1B0445EA030626F07F4404EAEC
:103A000001068E4201D1012000E0002070BD10B5FA
:103A100001460020002300228B8A0A8B120443EA0D
:103A2000020424F07F4010BD0CB5024600200023A4
:103A30000193009300920B0F019321F07F41019BB2
:103A40001BB1009B1433009303E0090C009B183357
:103A50000093009B1B680B400BB1012000E000208D
:103A60000CBD002221F07F42D3438382704730B5E2
:103A7000024600200023948801F0E06504EA154323
:103A800021F07F41948A0C4054B14BB1012008E0F1
:103A90000054004000127A0040420F00A08601004E
:103AA000002030BD002221F07F42D3438382704743
:103AB000DF48006840F00100DD49086008464068C2
:103AC000DC490840DA49486008460068DA4908409D
:103AD000D74908600846006820F48020086008463E
:103AE000406820F4FE0048604FF41F008860704773
:103AF000CF49096821F48031CD4A11601146096827
:103B000021F480211160B0F5803F03D0B0F5802F03
:103B10000ED106E0C649096841F48031C44A1160FB
:103B200007E0C349096841F4A021C14A116000E0DF
:103B300000BF00BF704710B50146002200230020DF
:103B40004A11012A02D1BA4C236806E0022A02D1A6
:103B5000B74C236A01E0B64C636A01F01F020124EE
:103B600094401C400CB1012000E0002010BD38B58D
:103B7000002000900024002500BF3120FFF7DBFF6C
:103B800005460098401C00900098B0F5A06F01D049
:103B9000002DF2D03120FFF7CEFF08B1012400E064
:103BA0000024204638BD01460020A14A106820F0BC
:103BB000F80040EAC10010607047A04908607047F3
:103BC000024600209A4B586820F47C1042EA010318
:103BD0001843974B586070479849086670470146EC
:103BE0000020934A506820F003000843506070475B
:103BF0008F48406800F00C007047014600208C4A56
:103C0000506820F0F00008435060704701460020E3
:103C1000874A506820F4E0600843506070470146CE
:103C20000020834A506820F4605040EAC100506090
:103C3000704729B17E4A527A02437D4B5A7204E0A2
:103C40007B4A527A82437A4B5A7270477B49D83109
:103C50000860704701460020754A506820F44040D3
:103C60000843506070470021714A20321170704A39
:103C700082F82010012802D004280AD104E0012192
:103C80006B4A2032117005E00521694A203211701B
:103C900000E000BF00BF7047694908607047644991
:103CA000096A0143624A11627047654944390860F4
:103CB000704730B500210022002400235C4D6D6860
:103CC00005F00C0121B1042905D0082923D105E014
:103CD0005C4D056022E05B4D05601FE0544D6D6852
:103CE00005F47012524D6D6805F48034022505EB21
:103CF00092421CB9544D554305600BE04C4D6D6824
:103D000005F400351DB1504D5543056002E04D4DA1
:103D10005543056002E04B4D056000BF00BF444DB8
:103D20006D6805F0F0010909484D6B5C0568DD40E0
:103D300045603F4D6D6805F4E061090A434D6B5CD9
:103D40004568DD4085603A4D6D6805F46051C90AEB
:103D50003E4D6B5C4568DD40C560354D6D6805F4D2
:103D60004041890B3A4D6B5CC568B5FBF3F50561C5
:103D700030BD29B12E4A526902432D4B5A6104E0ED
:103D80002B4A526982432A4B5A61704729B1284A0B
:103D900092690243264B9A6104E0254A9269824364
:103DA000234B9A61704729B1214AD2690243204BC3
:103DB000DA6104E01E4AD26982431D4BDA61704722
:103DC00029B11B4AD2680243194BDA6004E0184A51
:103DD000D2688243164BDA60704729B1144A1269DF
:103DE0000243134B1A6104E0114A12698243104BDB
:103DF0001A61704712494039086070470F49C8641A
:103E000070470B49C87170470948406A40F080709C
:103E100007494862704701460020054A92680A40F7
:103E20000AB1012000E00020704701498872704704
:103E3000001002400000FFF8FFFFF6FE00004242C3
:103E40008004424200127A0000093D00A4000020D4
:103E5000B400002029B1504A128802434E4B1A8008
:103E600004E04D4A128882434B4B1A8070474A48FF
:103E7000001D008840F010004749091D0880704768
:103E80004548001D00884FF6EF7108404249091D62
:103E900008807047002140481C300188001F0088BE
:103EA00041EA0040704700B50246FFF7E0FF100C02
:103EB000394918310880091D0A80FFF7E1FF00BD6C
:103EC00000B50246FFF7D3FFC2F303403249083181
:103ED0000880091D0A80FFF7D3FF00BD00B5024628
:103EE000FFF7C5FF100C2C4920310880091D0A80FE
:103EF000FFF7C6FF00BD00202749103109880907D8
:103F0000080B2549143109880843704700BF22482F
:103F1000001D008800F020000028F8D070471E48DF
:103F2000001D00884FF6F77108401B49091D0880E5
:103F300000BF1948001D008800F008000028F8D0D4
:103F4000704701460020144A121D12880A400AB127
:103F5000012000E0002070470F49091D09888143B6
:103F60000D4A121D11807047014600200A4A121D99
:103F700012880A40D0B2084A12880A4012B108B129
:103F8000012000E0002070470349091D0988814392
:103F9000014A121D118070470028004010B50446E8
:103FA000FE48844208D10121C014FFF709FF002117
:103FB000E014FFF705FFC4E0B4F1804F08D1012100
:103FC0000846FFF70AFF00210120FFF706FFB8E0CF
:103FD000F348844208D101210220FFF7FEFE0021B0
:103FE0000220FFF7FAFEACE0EE48844208D101213E
:103FF0000420FFF7F2FE00210420FFF7EEFEA0E010
:10400000E948844208D101210820FFF7E6FE00219B
:104010000820FFF7E2FE94E0E448844208D1012141
:104020001020FFF7DAFE00211020FFF7D6FE88E00F
:10403000DF48844208D101212020FFF7CEFE002175
:104040002020FFF7CAFE7CE0DA48844208D1012133
:104050004014FFF7B5FE00216014FFF7B1FE70E0D9
:10406000D548844209D10121C804FFF7A9FE0021E7
:104070004FF40020FFF7A4FE63E0D048844209D14A
:1040800001210805FFF79CFE00214FF48010FFF787
:1040900097FE56E0CA48844209D101214805FFF73E
:1040A0008FFE00214FF40010FFF78AFE49E0C5485B
:1040B000844208D101214020FFF78FFE00214020DB
:1040C000FFF78BFE3DE0C048844208D101218020EB
:1040D000FFF783FE00218020FFF77FFE31E0BB4821
:1040E000844208D101218015FFF777FE0021A01539
:1040F000FFF773FE25E0B648844209D10121080488
:10410000FFF75EFE00214FF48030FFF759FE18E004
:10411000B048844209D101214804FFF751FE002133
:104120004FF40030FFF74CFE0BE0AB48844208D15F
:1041300001218804FFF744FE00214FF48020FFF79F
:104140003FFE10BD00220288944B98420ED0994B3E
:1041500098420BD0B0F1804F08D0914B984205D0D7
:10416000904B984202D0904B984204D14FF68F73F7
:104170001A404B881A438D4B984207D08C4B98427B
:1041800004D04FF6FF431A40CB881A4302808B8835
:1041900083850B880385814B98420BD0854B9842D1
:1041A00008D08B4B984205D08A4B984202D08A4B5C
:1041B000984201D10B7A038601238382704770B540
:1041C000002400220023058C4FF6FE76354005843E
:1041D000028C8388048B4FF68F752C40B51E2C40C3
:1041E0000D882C43751E2A400D892A434D882A4389
:1041F0006A4DA8420BD06F4DA84208D0744DA8421A
:1042000005D0744DA84202D0734DA84213D14FF689
:10421000F7752A404D892A434FF6FB752A408D8851
:104220002A434FF6FF652B404FF6FF552B408D89F3
:104230002B43CD892B4383800483CD8885860284DC
:1042400070BD70B5002400220023058C4FF6EF7678
:1042500035400584028C8388048B48F6FF752C401A
:104260004FF6FF452C400D884FF6FF7606EA0525F0
:104270002C434FF6DF752A400D8906EA05152A43BF
:104280004D8806EA05152A43444DA84202D0494DFF
:10429000A8421DD14FF67F752A404D894FF6FF7613
:1042A00006EA05152A434FF6BF752A408D8806EAAF
:1042B00005152A434FF6FF352B404FF2FF752B4073
:1042C0008D8906EA85052B43CD8906EA85052B43B2
:1042D00083800483CD880587028470BD70B5002477
:1042E00000220023058C4FF6FF6635400584028CC2
:1042F0008388848B4FF68F752C404FF6FC752C40CD
:104300000D882C434FF6FF552A400D894FF6FF7656
:1043100006EA05252A434D8806EA05252A431F4D4E
:10432000A84202D0234DA8421DD14FF2FF752A406A
:104330004D894FF6FF7606EA05252A434FF6FF35ED
:104340002A408D8806EA05252A434EF6FF752B4044
:104350004DF6FF752B408D8906EA05152B43CD8957
:1043600006EA05152B4383808483CD8885870284E4
:1043700070BD70B5002200230024058C4EF6FF7638
:1043800035400584038C8488828B48F6FF752A406B
:104390004FF6FF452A400D8820E00000002C014028
:1043A0000004004000080040000C004000100040E5
:1043B0000014004000340140004C01400050014016
:1043C0000054014000180040001C00400020004044
:1043D0000040014000440140004801404FF6FF7694
:1043E00006EA05252A434DF6FF752B400D8906EA9E
:1043F00005352B434D8806EA05352B43FA4DA84277
:1044000002D0FA4DA84208D14BF6FF752C408D8999
:104410004FF6FF7606EA85152C4384808283CD888B
:10442000A0F84050038470BD828B4FF2FF331A40D6
:104430008283828B4FF6FF7303EA01231A43828340
:104440007047F0B50C461546002200210026078C67
:104450004EF6FF7C07EA0C070784828B018C4FF62F
:10446000FF7707EA043640F6FF473A404FF6FF77FA
:1044700007EA05273A434FF6FF7707EA03373A433F
:10448000D94FB8420ED0D94FB8420BD0B0F1804FBF
:1044900008D0D74FB84205D0D64FB84202D0D64F39
:1044A000B84206D14DF6FF77394046F4805739437C
:1044B00005E047F6FF57394044F48057394382837B
:1044C0000184F0BD828B4FF6F3731A408283828B96
:1044D0000A4382837047F0B50C461546002200213E
:1044E0000026078C4FF6FF6C07EA0C070784828BC7
:1044F000018C4FF6FF7707EA04264FF60C773A4017
:104500004FF6FF7707EA03172F433A43B64FB842F7
:104510000ED0B64FB8420BD0B0F1804F08D0B44F98
:10452000B84205D0B34FB84202D0B34FB84206D11B
:104530004FF6FF57394046F48077394305E04FF294
:10454000FF57394044F48077394382830184F0BDBA
:10455000028B4FF2FF331A400283028B4FF6FF7338
:1045600003EA01231A4302837047F0B50C4615464F
:10457000002200210026078C4FF6EF7C07EA0C078B
:104580000784028B018C4FF6FF7707EA041640F68A
:10459000FF473A404FF6FF7707EA03373A434FF6B3
:1045A000FF7707EA05273A438F4FB8420ED08F4F67
:1045B000B8420BD0B0F1804F08D08D4FB84205D033
:1045C0008C4FB84202D08C4FB84206D14FF6DF77FD
:1045D000394046F01007394305E04FF65F77394020
:1045E00044F01007394302830184F0BD028B4FF67B
:1045F000F3731A400283028B0A4302837047F0B5BB
:104600000C46154600220021068C4FF6FE773E40F0
:104610000684028B018C4FF60C7632407E1C06EA33
:1046200003162E433243704EB0420ED06F4EB0424E
:104630000BD0B0F1804F08D06D4EB04205D06D4E1A
:10464000B04202D06C4EB04206D14FF6FD763140FA
:1046500044F00106314305E04FF6F576314044F071
:104660000106314302830184F0BD70B505460C4656
:104670005D4885420ED05D4885420BD0B5F1804F34
:1046800008D05B48854205D05A48854202D05A4836
:10469000854200D100E000BF208850B92389A2885C
:1046A00061882846FFF7ABFFE1882846FFF79EFFA9
:1046B00025E0208804280AD12389A2886188284619
:1046C000FFF753FFE1882846FFF742FF17E02088F5
:1046D00008280AD12389A28861882846FFF7FBFEB3
:1046E000E1882846FFF7EEFE09E02389A288618869
:1046F0002846FFF7A6FEE1882846FFF795FE70BD25
:104700002DE9F04105460C4600260127608808B9CE
:10471000022600E00026A088012801D1022700E03F
:1047200001272088A0B92389A28861882846FFF73D
:1047300066FFE1882846FFF759FF23893A4631464C
:104740002846FFF712FFE1882846FFF701FF13E034
:104750002389A28861882846FFF707FFE188284659
:10476000FFF7F6FE23893A4631462846FFF747FF12
:10477000E1882846FFF73AFFBDE8F0810A884B88B8
:104780001A438B881A43CB881A430B891A434B89E7
:104790001A438B891A43A0F8442070474FF6FF71E3
:1047A000818000210180C180418001727047002119
:1047B000018041808180C180018141818181C181ED
:1047C0007047002101804180012181800021C1804A
:1047D000018170470021018041808180C180018179
:1047E0004181818170470000002C0140003401406C
:1047F0000004004000080040000C004021B1028885
:1048000042F00102028004E002884FF6FE731A4073
:104810000280704731B1B0F8442042F40042A0F861
:10482000442005E0B0F84420C2F30E02A0F8442072
:1048300070471AB183890B43838102E083898B43DC
:10484000838170478182704741EA0203A0F84830B3
:1048500070471AB183890B43838102E083898B43BC
:104860008381704701894FF6F872114001817047CA
:104870000A46002101894FF68F73194011430181C7
:10488000704730B504460D4629462046FFF7F0FF35
:10489000208940F00700208130BD2DE9F041044619
:1048A0000D4616461F46602D06D13B460122314675
:1048B0002046FFF75AFE05E03B46012231462046DE
:1048C000FFF79DFE29462046FFF7D2FF208940F0E2
:1048D00007002081BDE8F08130B50C460021018938
:1048E000C9B24FF6FF7505EA032515432543294351
:1048F000018130BD2DE9F04105460E461746984628
:10490000002443463A4631462846FFF7E5FF2C8906
:104910004FF6F870044044F007044FF68F700440DF
:1049200044F070042C81BDE8F081F0B504460D46DA
:1049300016461F463B46324629462046FFF7CCFF27
:10494000208940F480402081F0BD0185828270473B
:104950000A46002101884FF68F73194011430180E8
:104960007047F0B50C4615461E4600210022002374
:104970000189028B038C4FF6F877394021434FF6BB
:10498000FC473A4040F201173A434FF6DD773B408F
:104990004FF6FF7707EA06172F433B430181028357
:1049A0000384F0BD0A460021018B4FF68F73194036
:1049B0001143018370470A460021018B48F6FF73BB
:1049C00019404FF6FF7303EA02231943018370472E
:1049D0000A460021818B4FF68F7319401143818362
:1049E00070470A460021818B48F6FF7319404FF645
:1049F000FF7303EA022319438183704721B10288C0
:104A000042F08002028004E002884FF67F731A4071
:104A10000280704721B1828842F00402828004E063
:104A200082884FF6FB731A408280704721B18288DA
:104A300042F00802828004E082884FF6F7731A4041
:104A40008280704721B1828842F00102828004E0B6
:104A500082884FF6FE731A40828070470A46002112
:104A6000018B4FF6F77319401143018370470A46D3
:104A70000021018B4FF2FF7319404FF6FF7303EAD9
:104A800002231943018370470A460021818B4FF6A8
:104A9000F77319401143818370470A460021818BC7
:104AA0004FF2FF7319404FF6FF7303EA02231943D5
:104AB000818370470A460021018B4FF6FB73194032
:104AC0001143018370470A460021018B4FF6FF33E3
:104AD00019404FF6FF7303EA02231943018370471D
:104AE0000A460021818B4FF6FB73194011438183E5
:104AF00070470A460021818B4FF6FF3319404FF66D
:104B0000FF7303EA02231943818370470A46002199
:104B1000018B4FF67F7319401143018370470A469A
:104B20000021018BC1F30E014FF6FF7303EA02234C
:104B30001943018370470A460021818B4FF67F732A
:104B400019401143818370470A460021818BC1F3CC
:104B50000E014FF6FF7303EA022319438183704766
:104B60000A460021018C4FF6FD7319401143018460
:104B700070470A460021018C4FF6F7731940114324
:104B8000018470470A460021018C4FF6DF731940FB
:104B90004FF6FF7303EA02131943018470470A4674
:104BA0000021018C4FF67F7319404FF6FF7303EA23
:104BB00002131943018470470A460021018C4FF605
:104BC000FF5319404FF6FF7303EA02231943018490
:104BD00070470A460021018C4FF2FF7319404FF6CF
:104BE000FF7303EA02231943018470470A46002138
:104BF000018C4DF6FF7319404FF6FF7303EA023341
:104C000019430184704730B5002301248C40A3B2BE
:104C1000048C9C430484048C02FA01F5ADB22C434D
:104C2000048430BD30B5002304248C40A3B2048C2E
:104C30009C430484048C02FA01F5ADB22C43048435
:104C400030BD70B5034600200024184618300125F9
:104C50008D40ACB21D8CA5431D8409B1082909D132
:104C600000EB6100056825F07005056005681543D7
:104C700005600EE00D1FC5F34E052844056825F4B8
:104C8000E045056005684FF6FF7606EA02263543E3
:104C9000056070BD21B1028842F00202028004E08A
:104CA00002884FF6FD731A400280704721B10288D6
:104CB00042F00402028004E002884FF6FB731A40BF
:104CC0000280704721B1828842F08002828004E035
:104CD00082884FF67F731A408280704702884FF6B1
:104CE000F7731A40028002880A4302807047828864
:104CF0004FF68F731A40828082880A438280704701
:104D000002894FF6F8731A40028102890A43028130
:104D1000704702894FF67F731A40028102890A4365
:104D20000281704781847047818570478186704712
:104D30000187704781877047A0F84010704702884C
:104D40004FF6FF431A40028002880A4302807047F0
:104D50000146888E70470146088F70470146888F4C
:104D600070470146B1F8400070470146888C704793
:104D70000146088D704702460020138A0B400BB194
:104D8000012000E000207047CA430282704730B51E
:104D90000246002000230024158A05EA01039589B4
:104DA00005EA010413B10CB1012000E0002030BD80
:104DB000CA4302827047000010B50446FB48844293
:104DC00009D101218803FEF7FBFF00214FF4804049
:104DD000FEF7F6FF32E0F648844209D1012148048B
:104DE000FEF7FBFF00214FF40030FEF7F6FF25E051
:104DF000F048844209D101218804FEF7EEFF00212A
:104E00004FF48020FEF7E9FF18E0EB48844209D117
:104E10000121C804FEF7E1FF00214FF40020FEF756
:104E2000DCFF0BE0E548844208D101210805FEF7CC
:104E3000D4FF00214FF48010FEF7CFFF10BD2DE905
:104E4000F04786B005460E460024A24600BFA146A4
:104E50000027B08900B100BF2F462C8A4CF6FF70A6
:104E60000440F08804432C82AC894EF6F3100440D1
:104E7000B08831890843718908430443AC81AC8A06
:104E80004FF6FF400440B0890443AC8201A8FEF70E
:104E900010FFC648874202D1DDF810A001E0DDF81E
:104EA0000CA0A88900F4004040B10AEBCA0000EB56
:104EB0000A1031684900B0FBF1F807E00AEBCA00BC
:104EC00000EB0A1031688900B0FBF1F86420B8FBF0
:104ED000F0F004012009642101FB1089A88900F485
:104EE000004040B1322000EBC900B0FBF1F000F00F
:104EF0000700044308E0322000EB09106421B0FBF6
:104F0000F1F000F00F0004432C8106B0BDE8F087FB
:104F10004FF41651016000218180C18001810C2174
:104F2000418100218181704710B502460020108A1E
:104F30004FF2FF0318400B884C8823438C8823438F
:104F4000CC8823431843108210BD0021018041808A
:104F50008180C180704721B1828942F400528281F0
:104F600004E082894DF6FF731A4082817047F0B5E4
:104F70000346002400260025002040F66A17B942A7
:104F800000D100BF1846C1F3421401F01F060127EB
:104F900007FA06F5012C01D10C3004E0022C01D1F6
:104FA000103000E014301AB107682F43076002E0A8
:104FB0000768AF430760F0BD1AB1838A0B43838251
:104FC00002E0838A8B4383827047028A4FF6F07334
:104FD0001A400282028A0A430282704782894FF293
:104FE000FF731A40828182890A438281704721B10E
:104FF000828942F00202828104E082894FF6FD73C9
:105000001A4082817047028A4FF6DF731A4002828B
:10501000028A0A430282704721B1028A42F4804226
:10502000028204E0028A4BF6FF731A400282704744
:10503000C1F308028280704701468888C0F30800E7
:105040007047818941F0010181817047028BD2B2A2
:105050000283028B42EA012202837047028B02F430
:105060007F420283028B0A430283704721B1828A06
:1050700042F02002828204E0828A4FF6DF731A40F7
:105080008282704721B1828A42F01002828204E05B
:10509000828A4FF6EF731A408282704721B1828A6A
:1050A00042F00802828204E0828A4FF6F7731A40C7
:1050B0008282704721B1828942F40042828103E0FA
:1050C0008289C2F30E028281704721B1828A42F442
:1050D0000062828204E0828A4FF2FF731A40828269
:1050E0007047828A4FF6FB731A408282828A0A4393
:1050F0008282704721B1828A42F00202828204E0F9
:10510000828A4FF6FD731A40828270470246002061
:10511000B1F5007F00D100BF13880B400BB1012017
:1051200000E00020704701F40072B2F5007F00D16A
:1051300000BFCA430280704770B5024600240023B6
:105140000025002040F66A16B14200D100BFC1F32D
:10515000421501F01F03012606FA03F3012D02D1C7
:105160009689334006E0022D02D1168A334001E0D1
:10517000968A33400C12012606FA04F4168834404D
:1051800013B10CB1012000E0002070BD10B5002269
:10519000002340F66A14A14200D100BF0A12012484
:1051A0009440A3B2DC43048010BD000000380140ED
:1051B0000044004000480040004C004000500040C7
:1051C0000948804709480047FEE7FEE7FEE7FEE79B
:1051D000FEE7FEE7FEE7FEE7FEE7FEE704480549D7
:1051E000054A064B70470000DF520008ED0000083A
:1051F000A82D0020A8330020A82F0020A82F0020D1
:105200000CB50020019000906C48006840F480309C
:105210006A49086000BF6948006800F400300090E7
:105220000198401C0190009818B90198B0F5A06F42
:10523000F1D16248006800F4003010B10120009004
:1052400001E0002000900098012843D15C480068EC
:1052500040F010005A4908600846006820F003003A
:1052600008600846006840F0010008605348406844
:10527000524948600846406848600846406840F423
:10528000806048600846406820F47C10486008460A
:10529000406840F4881048600846006840F080701C
:1052A000086000BF4548006800F000700028F9D091
:1052B0004248406820F00300404948600846406882
:1052C00040F00200486000BF3C48406800F00C001D
:1052D0000828F9D10CBD10B5FFF792FF10BD10B52D
:1052E0003648006840F001003449086008464068CC
:1052F000344908403149486008460068324908404E
:105300002E4908600846006820F48020086008469E
:10531000406820F4FE0048604FF41F008860FFF7EB
:10532000DAFF4FF000602949086010BD10B5002178
:1053300000200022214B5B6803F00C0121B10429FD
:1053400006D0082928D107E0214B224C236027E012
:105350001F4B204C236023E0184B5B6803F4701054
:10536000164B5B6803F48032022303EB904022B9B2
:10537000194B4343174C23600DE0104B5B6803F45B
:10538000003323B1144B4343124C236003E0104B12
:105390004343104C236003E00D4B0E4C236000BFD1
:1053A00000BF064B5B68C3F303130C4CE15C094B75
:1053B0001B68CB40074C236010BD0000001002406A
:1053C000002002400000FFF8FFFFF6FE08ED00E0BD
:1053D00000127A00B800002000093D00BC00002047
:1053E0001CB50C46064B7B4469460090204600F0F5
:1053F00066F904460020694600F074F920461CBD99
:10540000FB02000040EA010310B59B070FD1042AFC
:105410000DD310C808C9121F9C42F8D020BA19BA7F
:10542000884201D9012010BD4FF0FF3010BD1AB1E4
:10543000D30703D0521C07E0002010BD10F8013B39
:1054400011F8014B1B1B07D110F8013B11F8014B60
:105450001B1B01D1921EF1D1184610BD032A40F248
:10546000308010F0030C00F0158011F8013BBCF106
:10547000020F624498BF11F801CB00F8013B38BF1E
:1054800011F8013BA2F1040298BF00F801CB38BF2C
:1054900000F8013B11F0030300F02580083AC0F04A
:1054A000088051F8043B083A51F804CBA0E80810F2
:1054B000F5E7121D5CBF51F8043B40F8043BAFF325
:1054C0000080D20724BF11F8013B11F801CB48BF7F
:1054D00011F8012B24BF00F8013B00F801CB48BFB5
:1054E00000F8012B704710B5203AC0F00B80B1E8EE
:1054F0001850203AA0E81850B1E81850A0E8185009
:10550000BFF4F5AF5FEA027C24BFB1E81850A0E811
:10551000185044BF18C918C0BDE810405FEA827C2B
:1055200024BF51F8043B40F8043B08BF7047D20742
:1055300028BF31F8023B48BF11F8012B28BF20F8E3
:10554000023B48BF00F8012B704770477047704717
:1055500070B5044685690068C10601D5302600E0B3
:105560002026C00707D070BDD4E9012130469047FE
:10557000206A401C20626D1EF6D570BD70B50446D1
:1055800085690078C00707D170BDD4E901212020CA
:105590009047206A401C20626D1EF6D570BD0968D8
:1055A0004A0501D540B27047C905FCD500B2704725
:1055B00009684A0501D5C0B27047C905FCD580B25B
:1055C000704770B50C460546012A05D0287880063C
:1055D00000D5EA69002302E0012305E05B1C934249
:1055E00002D2E05C0028F9D1A869E618C01AA861C7
:1055F000286A184428622846FFF7AAFF04E0D5E984
:10560000012114F8010B9047B442F8D32846FFF764
:10561000B5FF70BD2DE9F0410646002410687529DC
:10562000314616A510D0FFF7BAFF002802DA404233
:1056300013A507E031688A0701D512A502E04907E2
:1056400004D511A5012401E0FFF7B2FF00210A22D1
:1056500006F1240709E0B0FBF2FCB0FBF2F302FB19
:105660001C00303078541846491C0028F3D12346DA
:105670002A463046BDE8F04100F061BA0000000063
:105680002D0000002B0000002000000011680268BF
:10569000006A530501D508700AE0D30501D50880DA
:1056A00006E0130603D5C217C1E9000200E0086056
:1056B0000120704701694A1C02610878704700B5F3
:1056C0008FB0CDE901310021059105497944CDE93B
:1056D00003101146684600F029F90FB000BD000024
:1056E000E5FFFFFF0A6802F8010B0A60704700003F
:1056F0002DE9FF5F15468A460446DFF8AC80F84482
:105700000027D8E900103E46CDE9001010E03AF835
:1057100016106A4602A800F0A6FC411C07D02178AA
:10572000890603D5E269391891420DD80744761CE1
:105730002078800602D5E069B84205DDAE42E6DB9E
:105740003AF816000028E2D1A069C01BA0612046EB
:10575000FFF7FEFED8E90010CDE90010002017E0A9
:105760003AF818106A4602A800F07DFCB0F1FF3F3D
:1057700081460BD000250DF1080B05E0D4E901218D
:105780001BF8050090476D1C4D45F7D308F101004B
:10579000B0428046E4DB206A384420622046FFF7AE
:1057A000EDFEBDE8FF9F00005A1F00002DE9F0410B
:1057B0008046D21D22F007020025D2E90002F52919
:1057C00015A614D0011E72F1000106DA0023D0EBF9
:1057D000030063EB020211A608E0D8F800108B0763
:1057E00001D50FA602E0490701D50EA601251146F5
:1057F000002408F1240704E000F05CF930323A5547
:10580000641C50EA0102F7D12B463246214640463D
:10581000BDE8F04100F093B9000000002D00000049
:105820002B0000002000000030B4002100F124040F
:1058300008E002F00705D208303542EA4372DB087F
:105840006554491C52EA0305F3D10468002310A2F1
:10585000250707D5A40600D421B1C46901230DA2F0
:10586000641EC46130BC00F06AB910B5044621461C
:105870001068FFF79DFE02462046BDE81040002359
:10588000D2E7D21D22F00701D1E90023CCE70000C6
:105890000000000030000000F0B40D46018809054A
:1058A00002D5214C7C4402E01F4C7C440E34002184
:1058B00000F1240608E002F00F071209E75D42EA52
:1058C00003721B097754491C52EA0307F3D102788B
:1058D0000023120704D5702D06D009B1022311341C
:1058E0002246F0BC00F02BB901231034F8E770B564
:1058F00004460D4621461068FFF75AFE0246294627
:105900002046BDE870400023C6E7D21D22F0070301
:10591000D3E90023C0E70368126843F02003036063
:105920000823C3610023B7E7BC1D00002DE9F05F29
:10593000894604464FF0000ADFF874B1FB44C0F812
:1059400020A02046E1688847002874D0252806D08A
:10595000D4E901219047206A401C2062F1E700262B
:105960005F462046E16888472028054607DB312D41
:1059700005D2781910F8200C08B10643F1E7B007FA
:1059800001D526F00406C4F81CA00027C4F818A00E
:105990002A2D09D0284601F09AF838B304EB87087D
:1059A000303DC8F8185019E059F8041B204604EBA4
:1059B00087029161E1688847012F054618D1E069A7
:1059C000002820DA26F020061DE0D8F8180000EBA9
:1059D000800005EB40003038C8F818002046E16828
:1059E0008847054601F073F80028EED1012F0AD050
:1059F0002E2D08D12046E16888477F1C0546022FDE
:105A000046F02006C4DBA069002803DA404246F0D5
:105A10000106A061F00701D026F010066C2D0BD016
:105A2000682D09D04C2D39D06A2D35D0742D35D044
:105A30007A2D33D016E038E0E1682F4620468847BB
:105A4000B842054609D16C2F26D04FF48060E1683A
:105A5000064320468847054604E06C2F1AD04FF4D1
:105A6000807006430DB3A5F14100192802D82035F6
:105A700046F400664A462946204626604E46FAF716
:105A80006FFB80B101280BD0F61D26F0070000F156
:105A9000080956E74020E4E78020D8E70020D6E751
:105AA00006F104094DE7284652E7206ABDE8F09F59
:105AB0004C1D000030B5B0F10A024FEA900E71F1B2
:105AC00000034EEA817EB0EB0E0061EB91014FEADC
:105AD000101E4EEA017E10EB0E0041EB11114FEA51
