:020000040800F2
:10000000184C00201D260008252600082726000879
:10001000292600082B2600082D26000800000000D5
:10002000000000000000000000000000CD010008FA
:10003000312600080000000011020008C11C000861
:10004000372600083726000837260008372600081C
:10005000372600083726000837260008372600080C
:1000600037260008372600083726000837260008FC
:1000700037260008372600083726000837260008EC
:1000800037260008372600083726000837260008DC
:1000900037260008372600083726000837260008CC
:1000A00037260008372600083726000837260008BC
:1000B00037260008372600083726000837260008AC
:1000C000372600083726000837260008372600089C
:1000D000372600083726000837260008372600088C
:1000E000372600083726000837260008372600087C
:1000F000372600083726000837260008372600086C
:10010000372600083726000837260008372600085B
:10011000372600083726000837260008372600084B
:10012000372600083726000837260008372600083B
:1001300000F002F800F03AF80AA090E8000C8244BF
:100140008344AAF10107DA4501D100F02FF8AFF29C
:10015000090EBAE80F0013F0010F18BFFB1A43F0A5
:10016000010318476835000088350000103A24BFA5
:1001700078C878C1FAD8520724BF30C830C144BF0C
:1001800004680C607047000000230024002500264E
:10019000103A28BF78C1FBD8520728BF30C148BFEA
:1001A0000B6070471FB51FBD10B510BD03F056FAA8
:1001B0001146FFF7F7FF00F055F803F074FA03B4A7
:1001C000FFF7F2FF03BC03F079FA0000224B196835
:1001D0000868B0E8F00F80F30988BFF36F8F4FF025
:1001E000000080F311884EF00D0E704700000000F3
:1001F00006480068006880F3088862B661B6BFF3FD
:100200004F8FBFF36F8F00DF00BF00BF08ED00E02E
:10021000EFF30980BFF36F8F0F4B1A6820E9F00FDF
:10022000106008B54FF0BF0080F31188BFF34F8F07
:10023000BFF36F8F01F099F84FF0000080F3118841
:10024000BDE8084019680868B0E8F00F80F3098835
:10025000BFF36F8F704700BF58000020EFF3058099
:100260007047000070B5164800684FF47A72B0FB12
:10027000F2F1481EB0F1807F00D31BE0481E4FF022
:10028000E022506150170F22002807DA13071D0ED5
:100290000C4B00F00F04241F1D5503E013071C0E28
:1002A000094B1C5400BF00204FF0E0229061072052
:1002B000106100BF01F01FFE01F0BAF9002070BD0F
:1002C000C400002018ED00E000E400E008B50121C2
:1002D000202002F03FF910208DF8030001208DF856
:1002E00002001F20ADF800006946874801F076FE45
:1002F00028208DF8030001208DF802004FF4F070E3
:10030000ADF800006946804801F068FE08BD08B5F8
:100310000121202002F01EF910208DF80300032097
:100320008DF802004FF4F070ADF800006946764891
:1003300001F054FE28208DF8030003208DF8020000
:100340001F20ADF8000069466F4801F047FE08BD68
:1003500010B50024FFF7BAFF4FF4F0716A4801F0BE
:10036000ECFE1F21684801F0E6FE674801F0DFFE61
:10037000C0B208B9012000E000201F2801D10020F0
:1003800010BD2021604801F0BCFE08B1601C84B2A1
:1003900040215D4801F0B5FE08B1A01C84B2802167
:1003A000594801F0AEFE08B1201D84B24FF48071AF
:1003B000554801F0A6FE10B104F1080084B2FFF721
:1003C000A6FF1F21504801F0B8FE4FF4F0714E48CF
:1003D00001F0B1FE4C4801F0AAFEC0B208B90120FC
:1003E00000E000201F2801D10020C9E70121464874
:1003F00001F087FE10B104F1100084B202214248DE
:1004000001F07FFE10B104F1200084B204213E48C7
:1004100001F077FE10B104F1400084B208213A489F
:1004200001F06FFE10B104F1800084B21021364853
:1004300001F067FE10B104F5807084B24FF4F071E2
:10044000314801F07AFE1F212F4801F076FE442C3E
:1004500043D018DC222C36D00CDC142C2DD004DC3C
:10046000112C26D0122C4CD125E0182C27D0212C71
:1004700047D126E0242C28D0282C28D0412C28D065
:10048000422C3ED127E0882C31D008DC482C26D0E5
:10049000812C26D0822C26D0842C32D125E0A4F2C7
:1004A000011030B3012826D0032826D0072828D1F0
:1004B00025E00B2064E7102062E7122060E713209C
:1004C0005EE70C205CE701205AE7022058E7032092
:1004D00056E70D2054E7042052E7052050E7062098
:1004E0004EE70E204CE707204AE7082048E709209E
:1004F00046E70F2044E7112042E7002040E71420A0
:100500003EE70A203CE700000014014008B5012145
:10051000082002F01FF810208DF8030001208DF84C
:100520000200C003ADF800006946804801F056FDA6
:100530004FF40050ADF8000069467C4801F04EFDD4
:100540004FF48050ADF800006946784801F046FD50
:1005500008BD70B50546002425E045FA04F000F01A
:10056000010078B14FF40041704801F0E4FD4FF410
:1005700000516E4801F0DFFD4FF400516B4801F06F
:10058000DCFD0EE04FF40041684801F0D6FD4FF469
:100590000051664801F0CFFD4FF40051634801F06F
:1005A000CCFD601CC4B2082CD7DB70BD2DE9F04136
:1005B00004460D4616461F465D49C95DC943C8B28B
:1005C000FFF7C7FF5B49885DFFF7C3FF5949485DE7
:1005D000FFF7BFFF5749085DFFF7BBFF4FF480519E
:1005E000524801F0A8FD4FF48051504801F0A5FD9C
:1005F000BDE8F081F0B50A46002803DA1425D5716C
:10060000404201E01525D571002119E001230024A5
:1006100004E003EB83056B00651CECB28C42F8DB55
:10062000984200D240B9B0FBF3F50A26B5FBF6F7C5
:1006300006FB1755555401E0152555544D1CE9B2DC
:100640000729E3DBF0BD2DE9F84F05460E461746B6
:100650009B46BBF1080F60D2DFE80BF01A1B1C1D94
:100660001E1F2004002D02DA4FF0140801E04FF0A5
:100670001508002E02DA4FF0140901E04FF01509B9
:10068000002F02DA4FF0140A01E04FF0150A44E09F
:1006900000BF00BF00BF00BF00BF00BF002D00DAD9
:1006A0006D42002E00DA7642002F00DA7F420124EC
:1006B0000020009006E004EB840044000098401CF9
:1006C000C0B2009000985845F5DBA54200D23DB974
:1006D000B5FBF4F00A21B0FBF1F201FB120801E0D6
:1006E0004FF01508A64200D23EB9B6FBF4F00A213D
:1006F000B0FBF1F201FB120901E04FF01509A7422E
:1007000000D23FB9B7FBF4F00A21B0FBF1F201FBD4
:10071000120A01E04FF0150A00BF00BF5B465246C7
:1007200049464046FFF742FFBDE8F88F000C014004
:1007300016000020000000205B480088A0F5FA4168
:100740004FF4FA40584A1080584800680844574A05
:10075000106010460068704755480088A0F5FA41BF
:100760004FF4FA40524A1080524800680844514AF7
:1007700010601046006870474F480088A0F5FA41A5
:100780004FF4FA404C4A10804C48006808444B4AE9
:10079000106010460068704710B501210C2001F070
:1007A000E6FE012142F2350001F0D4FE0420444966
:1007B000C870032088700880424801F00FFC0121B6
:1007C000414801F0DCFC00231A4602213A48243853
:1007D00002F017FD4FF6FF713748243802F0F4FE9F
:1007E0004FF4FA413448243802F0ECFE012132483B
:1007F000243802F053FCFFF7BFFF04203049C870D3
:100800000320887000030880304801F0E7FB0121D5
:10081000080301F0B4FC00231A46022124482438BE
:1008200002F0EFFC4FF6FF712148243802F0CCFEB5
:100830004FF4FA411E48243802F0C4FE01211C483E
:10084000243802F02BFCFFF787FF04201C49C870F6
:1008500003208870C02008801D4801F0BFFB0023E2
:100860001A4602211048243802F0CBFC4FF6FF71E3
:100870000D48243802F0A8FE4FF4FA410A48243803
:1008800002F0A0FE01210848243802F007FCFFF71F
:1008900053FF10BD0949086070470449086070475C
:1008A00004490860704700002434014024000020FF
:1008B0002408004028000020240C004020000020D4
:1008C0002C0000200008014001002000001401401D
:1008D0000010014000205C4948600320487200205D
:1008E00008707047584B0ECB80E80E00704770B50B
:1008F00004465548007830B1012820D002281FD086
:1009000003281BD11DE00A2C06D00B2C05D00C2C83
:1009100007D00D2C0DD108E00BE001204A490870EA
:1009200007E002204849087003E0032046490870A8
:1009300000BF00BF002044494860087280E000BF4B
:1009400000BF152C7AD2DFE804F00B0C0D0E0F104F
:1009500011121314797979792A2E792679345A006B
:1009600000BF00BF00BF00BF00BF00BF00BF00BF8F
:1009700000BF3548007A002804DD3348007A401C67
:10098000314908723048406800EB800004EB4000B9
:100990002D49486052E001202B4908724EE00020AA
:1009A000294948604AE02848406840422649486052
:1009B00044E025480078012804D002280BD0032801
:1009C0001BD111E0FFF7D8FE054600EBD5704010B3
:1009D0001D49486011E0FFF7AFFE054600EBD570FA
:1009E00040101949486008E0FFF7B6FE054600EBE5
:1009F000D57040101449486000BF00BF1EE0124887
:100A00000078012804D0022807D003280FD109E07C
:100A10000D494868FFF73EFF09E00B494868FFF7BA
:100A20003CFF04E008494868FFF73AFF00BF00BFF9
:100A30000020054948600872087000BF00BF00BF71
:100A400000BF0148007870BDD800002010B5FFF746
:100A50005DFDFFF7A1FEFFF73DFFFFF73BFF002025
:100A6000FFF718FF0020FFF718FF0020FFF718FF1F
:100A700000205349087053490860FFF769FC524948
:100A8000087010BD4E480078401C4D49087008465B
:100A90000078072801DD00200870704710B549482C
:100AA0000068502804D9002046490860012010BD84
:100AB000FFF74EFC0A2805D042480068401C414917
:100AC000086002E000203F4908600020EFE73F484F
:100AD0000068401C3D49086008460068B0F5967FF4
:100AE00003D900200860012070470020FCE7014680
:100AF000002003E015220A54421CD0B20828F9DB7A
:100B000070473EB5FFF7CAFF20B1FFF721FC04464E
:100B1000FFF7EDFE6846FFF7E5FE2D489DE80E0065
:100B20000EC00C38007810B101281AD103E0002063
:100B30002649086015E0FFF7CAFF88B1254800780C
:100B400040B9234948682449FFF754FD0120214951
:100B5000087005E02048FFF7CAFF00201D49087013
:100B600000BF00BF3EBD10B5FFF706FE04461A49A0
:100B7000FFF740FDFFF7E0FD04461849FFF73AFD97
:100B8000FFF7EAFD04461649FFF734FD10BD10B526
:100B9000FFF7E9FFFFF7B5FF114B094C24781A5D09
:100BA0000E4B074C2478195D0B4B054C2478185DCF
:100BB000034B1B78FFF7FAFCFFF764FF10BD000042
:100BC000300000204C00002049000020540000208C
:100BD000E4000020500000203900002041000020E7
:100BE0003100002000F1080141604FF0FF318160C9
:100BF00000F10801C160016100210160704700211E
:100C00000161704742684A6093688B6093685960DD
:100C10009160086103685B1C0360704710B5024671
:100C20000B685C1C0CB9106907E002F1080000E0D9
:100C30004068446824689C42FAD944684C604C6817
:100C4000A160886041600A611468641C146010BD72
:100C500001460A69D1E901309860D1E90103586081
:100C60005068884201D1886850600020086110688F
:100C7000401E10601068704710B5002407E004EBB8
:100C80008401FE4A02EB8100FFF7ACFF641C052CD7
:100C9000F5D3FB48FFF7A6FFFA48FFF7A3FFFA4892
:100CA000FFF7A0FFF948FFF79DFFF948FFF79AFF0C
:100CB000F348F8490860F348F749086010BD10B5DB
:100CC000044600F0E0FFF5480068401CF349086066
:100CD000F348006840B9F2480460084600680128FB
:100CE0000DD1FFF7C9FF0AE0EE48006838B9EC48BB
:100CF0000068C06AE16A884201D8E9480460EA48AD
:100D00000068401CE849086094F82C1001208840D5
:100D1000E64909680843E5490860E16A01EB810199
:100D2000D64A02EB8100211DFFF76CFF00F0BAFFED
:100D3000DC48006868B1DA480068C06AE16A884245
:100D400007D24FF08050DA490860BFF34F8FBFF3EE
:100D50006F8F10BD2DE9FF5F80460E469146DDE99D
:100D60000E7A109CA9F10100216B01EB800B2BF096
:100D7000070B002507E0715D04F134004155705DFB
:100D800000B902E06D1C102DF5D300BF00214320F7
:100D90000155052F00D30427E762201DFFF72FFF21
:100DA00004F11800FFF72BFF2461C7F10500A061D3
:100DB00064620020606484F8480041465846039A03
:100DC00000F035FF2060BAF1000F01D0CAF80040F2
:100DD000BDE8FF9F2DE9FF4F85B080468946174645
:100DE000DDE912ABB80000F0ECFF064656B14C202E
:100DF00000F0E7FF04460CB1266304E0304601F042
:100E00003EF800E000247CB10020CDE900ABCDE944
:100E100002403A4649464046089BFFF79BFF204662
:100E2000FFF74DFF012501E04FF0FF35284609B0DF
:100E3000BDE8F08F97490968096809B9012100E008
:100E4000002121B14FF0FF319A4A116006E091492B
:100E50000968C968C868974A41681160704710B549
:100E60000446206B01F00BF8204601F008F810BD95
:100E700070B5054600F007FF15B98948006800E025
:100E800028460446201DFFF7E3FE78B9E06A00EB30
:100E900080007A4951F8200040B994F82C100120C4
:100EA000884082490968814380480160A06A18B17E
:100EB00004F11800FFF7CCFE7B480068401C7A491B
:100EC000086077480068844209D1211D6F48FFF708
:100ED00099FE79480068401C7749086009E06F482E
:100EE0000068401E6D4908602046FFF7B8FFFFF715
:100EF000A1FF00F0D7FE6B48006858B16848006851
:100F0000844207D14FF0805069490860BFF34F8F8A
:100F1000BFF36F8F70BD2DE9F0410027674800686F
:100F2000002863D166480068451C654805608DB996
:100F30005848D0F80080584800685649086056481C
:100F4000C0F800805F480068401C5E490860FFF7F9
:100F500071FF00BF5748006885423BD300BF4D4832
:100F60000068006808B9012000E0002020B14FF0BF
:100F7000FF30504908602CE046480068C068C468EB
:100F80006668B54202D24B48066022E0201DFFF79A
:100F90005FFEA06A18B104F11800FFF759FE94F83B
:100FA0002C10012088404149096808433F490860E6
:100FB000E16A01EB8101314A02EB8100211DFFF75B
:100FC00021FE3749E06A0968C96A8842C7D3012708
:100FD000C5E700BF32480068C06A00EB80002749BF
:100FE00051F82000012800D9012704E036480068A4
:100FF000401C354908603548006800B10127384673
:10100000BDE8F08170B50024002600F03CFE2B48BE
:101010000068401E294908600846006800287BD106
:101020001E480068002877D024E01748C068C468CC
:1010300004F11800FFF70CFE201DFFF709FE94F8DD
:101040002C10012088401949096808431749086095
:10105000E16A01EB8101094A02EB8100211DFFF7E2
:10106000D1FD0F49E06A0968C96A884202D30120AC
:10107000164908600448006850BB2AE0F0000020D0
:1010800054010020680100207C0100209001002014
:10109000A40100205C000020600000206800002007
:1010A0005800002074000020840000207000002000
:1010B00004ED00E088000020640000209000002083
:1010C0006C00002080000020780000207C000020C0
:1010D00001E0012000E000200028A6D00CB1FFF7BD
:1010E000A9FEFD48056865B100BFFFF714FF10B108
:1010F0000120FA4908606D1E002DF6D10020F64946
:101100000860F648006838B101263007F4490860E5
:10111000BFF34F8FBFF36F8F00F0C4FD304670BD3B
:101120002DE9F04105460E46EE480768EE48006896
:10113000001DFFF78DFD50B9EB48006890F82C10AA
:1011400001208840E94909688143E8480160681C3A
:1011500038B936B1E4480168091DE548FFF752FD8A
:101160001AE07C19E04800684460BC4207D2DE48BF
:101170000168091DDF480068FFF750FD0CE0DA4800
:101180000168091DDC480068FFF748FDDB4800687E
:10119000844201D2D9480460BDE8F081D848006893
:1011A000401CD749086070472DE9F047044688463F
:1011B0004FF00009FFF7F2FFCA480668206800EB0D
:1011C00008052068B04207D92068A8420BD9B5426B
:1011D00009D94FF0010906E02068A84201D8B542BC
:1011E00001D94FF001092560B9F1000F03D0A81B08
:1011F0000021FFF795FFFFF705FF07463FB94FF0C6
:101200008050B7490860BFF34F8FBFF36F8FBDE8C1
:10121000F08770B50446002544B1FFF7BFFF0021F9
:101220002046FFF77DFFFFF7EDFE05463DB94FF085
:101230008050AB490860BFF34F8FBFF36F8F70BD15
:1012400070B5044600F01FFD14B9A748006800E01F
:1012500020460646F56A00F025FD284670BD70B5AB
:10126000024600BFBF25EFF3118485F31188BFF359
:101270004F8FBFF36F8F00BF214612B99A4C24687D
:1012800000E014462346D86A00BF81F3118800BFEE
:1012900070BD2DE9F04780460D464FF00009052D41
:1012A00000D3042500F0EFFCB8F1000F02D18E4806
:1012B000006800E040460446E66AAE4251D0B542BE
:1012C0000BD98948006884420DD087480068C06AFD
:1012D000A84208D84FF0010905E08348006884421D
:1012E00001D14FF00109E76AE562A06900F0004012
:1012F00010B9C5F10500A06107EB8701814A02EB37
:1013000081016069884201D1012000E00020E0B144
:10131000201DFFF79DFC30B90120B84073490968D2
:1013200081437248016094F82C10012088406F4975
:10133000096808436D490860E16A01EB8101714A5F
:1013400002EB8100211DFFF75DFCB9F1000F07D012
:101350004FF0805062490860BFF34F8FBFF36F8F2B
:1013600000BF00F09FFCBDE8F0876548006818B139
:1013700001205A4908601DE00020584908605B4878
:101380000068B0FA80F0C0F11F0101EB81025D4BF3
:1013900003EB820042685268426000F10802436831
:1013A000934202D14268526842604268D2684E4B12
:1013B0001A6000BF704770B5054600F064FC15B9AF
:1013C0004948006800E028460446201DFFF740FC1D
:1013D00078B9E06A00EB80004A4951F8200040B932
:1013E00094F82C10012088404049096881433F4807
:1013F0000160A06A18B104F11800FFF729FC211D53
:101400003B48FFF7FFFB00F04DFC3F48006828B168
:1014100000F039FCFFF70EFD00F044FC3248006894
:10142000844217D13848006840B14FF080502C49B1
:101430000860BFF34F8FBFF36F8F0BE02C4800683D
:1014400032490968884203D100202749086001E039
:10145000FFF78BFF70BD10B5014600200A46244CF3
:101460005369A34201D1012300E0002373B1284C4A
:10147000936AA34201D1012300E0002333B9936AA8
:101480000BB9012300E0002303B1012010BD70B5AA
:1014900005462C46F4B31448006884424BD000F053
:1014A000F2FB2046FFF7D7FFA8B3201DFFF7D0FBC4
:1014B00094F82C10012088400C49096808430B4916
:1014C0000860E16A01EB81010E4A02EB8100211DF7
:1014D000FFF798FB04491FE0780000207C00002003
:1014E00004ED00E06C000020580000207000002097
:1014F000A4010020600000205C0000208800002083
:1015000090000020F00000207400002068000020FF
:101510007C0100200FE00CE0E06A0968C96A88429B
:1015200007D34FF08050FE490860BFF34F8FBFF3E1
:101530006F8F00F0B7FB70BD2DE9F0410646002724
:10154000344600BFBF21EFF3118081F31188BFF350
:101550004F8FBFF36F8F00BF05462046FFF77BFF1D
:1015600020B3F0480068E0B9EF49E06A0968C96A49
:10157000884200D30127201DFFF76AFB94F82C1046
:1015800001208840E94909680843E8490860E16AA0
:1015900001EB8101E64A02EB8100211DFFF732FBDE
:1015A00004E004F11801E348FFF72CFB00BF85F3CA
:1015B000118800BF3846BDE8F08170B523E0FFF721
:1015C000EDFDDD48006808B9012000E00020054677
:1015D000FFF718FDBDB900F056FBD748C068C468D6
:1015E000201DFFF735FBD5480068401ED349086031
:1015F000D3480068401ED249086000F053FB2046E3
:10160000FFF72DFC00BFCE4800680028D7D170BD81
:1016100000BFFFF7D2FFC64800680128F9D94FF094
:101620008050BF490860BFF34F8FBFF36F8FF0E763
:101630001CB5C44800210B468022CDE90010C2A190
:10164000C348FFF7C7FB0446012C14D100BFBF20DD
:1016500080F31188BFF34F8FBFF36F8F00BF4FF040
:10166000FF30BC4908600120BB4908600020BB492D
:10167000086000F0F2FA1CBD10B500BFBF2080F377
:101680001188BFF34F8FBFF36F8F00BF0020B249A7
:10169000086000F0F7FA10BDB049086870470021F3
:1016A000AE4A10687047A54800687047014611B9F6
:1016B0009D48006800E00846024602F13400704789
:1016C00070B505460C469848016818312846FFF762
:1016D000A5FA01212046FFF723FD70BD70B506462F
:1016E0000C46154644F000408F49096888618E48D1
:1016F000016818313046FFF785FA01212846FFF7C7
:101700000FFD70BD70B50646F068C46804F118009E
:10171000FFF79EFA83480068A8B9201DFFF798FAE2
:1017200094F82C10012088408049096808437F49BB
:101730000860E16A01EB81017D4A02EB8100211D15
:10174000FFF760FA04E004F118017A48FFF75AFA4B
:101750007549E06A0968C96A884204D901250120EF
:101760007F49086000E00025284670BD2DE9F04162
:1017700005460F4647F000402860EC682846FFF712
:1017800067FA201DFFF764FA94F82C1001208840B6
:1017900066490968084365490860E16A01EB81010F
:1017A000634A02EB8100211DFFF72CFA5E49E06AD3
:1017B0000968C96A884204D901260120684908607D
:1017C00000E000263046BDE8F08166490968016006
:1017D000624909684160704770B504460D4600F0E3
:1017E00052FA5E4802682868401C08B9002619E0D1
:1017F0005C4920680968884204D06068904201D83A
:1018000001260FE06068101A2968884209D228680A
:101810006168511A401A28602046FFF7D6FF00265B
:1018200000E0012600F03EFA304670BD01204C4930
:10183000086070473C49096888693B490968C96A7A
:10184000C1F10501384A12689161704770B50646CA
:101850000D4600F018FA34480068406C88B9012041
:101860003149096881F848005DB101212846FFF738
:1018700057FC4FF080502A490860BFF34F8FBFF3E9
:101880006F8F00F00FFA00F0FEF927480068446CF3
:101890004CB126B1002024490968486403E0601E69
:1018A00021490968486400201F49096881F84800F7
:1018B00000F0F8F9204670BD2DE9F0410746884652
:1018C00014461D4600F0DFF91748006890F84800FC
:1018D000022818D01449096801F14400496CB94341
:1018E000016001201049096881F848005DB10121BB
:1018F0002846FFF715FC4FF0805009490860BFF3F8
:101900004F8FBFF36F8F00F0CDF900F0BCF91CB121
:1019100005480068406C20600348006824E000002F
:1019200004ED00E09000002058000020700000202E
:10193000F00000207C0100209001002068000020C1
:10194000640000208C00002049444C450000000049
:101950001116000888000020740000206C00002090
:101960007C0000208000002090F84800012801D170
:10197000002608E0A149096801F14400496C21EA08
:1019800008010160012600209C49096881F848008F
:1019900000F088F93046BDE8F0812DE9F047814636
:1019A0000D4616461F464FF0010A4C4600F06BF9F3
:1019B0000FB1606C386094F84880022084F84800C9
:1019C000052E17D2DFE806F01503070B0D00606C3B
:1019D000284360640EE0606C401C60640AE065644B
:1019E00008E0B8F1020F01D0656401E04FF0000A91
:1019F00000E000BF00BFB8F1010F22D1201DFFF7AA
:101A000027F994F82C10012088407D490968084383
:101A10007B490860E16A01EB81017A4A02EB8100AF
:101A2000211DFFF7EFF87549E06A0968C96A884225
:101A300007D94FF0805074490860BFF34F8FBFF350
:101A40006F8F00F02FF95046BDE8F0872DE9F84F71
:101A500082460D4616461F46DDF828B0012000904C
:101A6000544600BFBF21EFF3118081F31188BFF30B
:101A70004F8FBFF36F8F00BF81460FB1606C38602E
:101A800094F84880022084F84800052E17D2DFE839
:101A900006F01503070B0D00606C284360640EE030
:101AA000606C401C60640AE0656408E0B8F1020FF5
:101AB00001D0656401E00020009000E000BF00BF9D
:101AC000B8F1010F2DD151480068A8B9201DFFF7CA
:101AD000BFF894F82C100120884049490968084350
:101AE00047490860E16A01EB8101464A02EB810047
:101AF000211DFFF787F804E004F118014448FFF7BF
:101B000081F83E49E06A0968C96A884209D9BBF18F
:101B1000000F03D00120CBF8000002E001203D4976
:101B2000086000BF89F3118800BF0098BDE8F88FF6
:101B30002DE9F04105460E462C4600BFBF21EFF3CC
:101B4000118081F31188BFF34F8FBFF36F8F00BFF8
:101B5000074694F84880022084F84800606C401CD6
:101B60006064B8F1010F2AD128480068A8B9201D87
:101B7000FFF76EF894F82C1001208840204909687E
:101B800008431F490860E16A01EB81011D4A02EB2D
:101B90008100211DFFF736F804E004F118011C480C
:101BA000FFF730F81549E06A0968C96A884206D922
:101BB00016B10120306002E001201649086000BF24
:101BC00087F3118800BFBDE8F08170B5054615B9EF
:101BD0000A48006800E02846064600F054F896F8E7
:101BE0004800022804D1002086F84800012400E0C3
:101BF000002400F057F8204670BD00005800002077
:101C000070000020F000002004ED00E090000020B3
:101C10007C0100207C00002000BFBF2080F31188E1
:101C2000BFF34F8FBFF36F8F00BF00BFFEE7001FF2
:101C30004FF080730360001F21F001030360001F59
:101C40002B4B0360143802602038704729484FF04E
:101C5000E021486107200861704710B526480068F8
:101C600040F47F00244908600846006840F07F4047
:101C70000860FFF7EBFF002020490860FEF7B8FA84
:101C8000002010BD704700BFBF2080F31188BFF354
:101C90004F8FBFF36F8F00BF18480068401C174973
:101CA0000860704715480068401E144908600846DF
:101CB000006820B9002080F3118800BF00BF704782
:101CC00010B500BFBF2080F31188BFF34F8FBFF363
:101CD0006F8F00BFFFF71FF920B14FF0805006490A
:101CE0001C39086000BF002080F3118800BF10BDC0
:101CF000191C00083F19010020ED00E094000020AD
:101D000010B50146714800E0006803688B42FBD3C0
:101D10000246436813448B4204D143684C68234411
:101D2000436001460A464B6813440468A34211D13C
:101D3000674C03682468A34208D04B680468646851
:101D400023444B6003681B680B6005E0604B1B6815
:101D50000B6001E003680B60884200D0016010BD99
:101D600030B54FF488435B4800F007042CB1C01D28
:101D700020F00700574C041B1B1B0246534C2260EB
:101D80000024524D6C60D018083820F00700504CE9
:101D9000206000244E4D2D686C604D4D2D682C60E8
:101DA0001146441A4C604A4C24680C604A4D4C68F9
:101DB0002C604A4D4C682C604FF00044484D2C601C
:101DC00030BD2DE9F04105464FF00008FFF7E6F978
:101DD0003F48006808B9FFF7C3FF41480068284042
:101DE000002847D145B1083505F0070020B105F0BE
:101DF0000700C0F108000544002D3BD037480068BB
:101E0000854237D8314E3046046801E026462468C2
:101E10006068A84202D220680028F7D12C480068E8
:101E2000844227D0306800F108082068306060687C
:101E3000401B102807D967196068401B78606560EF
:101E40003846FFF75DFF254960680968081A23498D
:101E500008600846006820490968884203D21F4884
:101E600000681D4908601E49606809680843606091
:101E700000202060FFF7C6F84046BDE8F08170B54D
:101E800006463546D6B1083D2C46154960680968B6
:101E9000084098B1206888B911496068096888438A
:101EA0006060FFF77BF90D496068096808440B49D9
:101EB00008602046FFF724FFFFF7A4F870BD07482D
:101EC0000068704704480068704770479800002019
:101ED000A0000020B8010020A8000020A4000020DD
:101EE000AC000020FEF7B2FD00BFFEF750FE01205F
:101EF000FFF78FF9F9E71CB5002003210346802284
:101F0000CDE9001002A10448FEF764FF1CBD0000EB
:101F10004D61696E00000000E51E000810B5044622
:101F2000CC48844208D10121042000F02DFB00217F
:101F3000042000F029FB46E0C748844208D1012173
:101F4000082000F021FB0021082000F01DFB3AE0F2
:101F5000C248844208D10121102000F015FB002165
:101F6000102000F011FB2EE0BD48844208D1012171
:101F7000202000F009FB0021202000F005FB22E0DA
:101F8000B848844208D10121402000F0FDFA002128
:101F9000402000F0F9FA16E0B348844208D101214C
:101FA000802000F0F1FA0021802000F0EDFA0AE034
:101FB000AE48844207D10121801500F0E5FA0021E6
:101FC000A01500F0E1FA10BD10B50121084600F09F
:101FD000DBFA0021012000F0D7FA10BD2DE9F04115
:101FE000024600250026002000230024002791F847
:101FF00003C00CF00F0591F803C00CF0100CBCF1FD
:10200000000F03D091F802C04CEA050591F800C01A
:10201000BCF1000F31D0146800202BE04FF0010C10
:102020000CFA00F3B1F800C00CEA03069E4220D17E
:1020300083004FF00F0C0CFA03F7BC4305FA03FCC6
:102040004CEA040491F803C0BCF1280F06D14FF00C
:10205000010C0CFA00FCC2F814C00AE091F803C0AD
:10206000BCF1480F05D14FF0010C0CFA00FCC2F88E
:1020700010C0401C0828D1D31460B1F800C0BCF1D6
:10208000FF0F34DD546800202EE000F1080C4FF003
:10209000010808FA0CF3B1F800C00CEA03069E42EE
:1020A00021D183004FF00F0C0CFA03F7BC4305FA63
:1020B00003FC4CEA040491F803C0BCF1280F05D1DD
:1020C00000F1080C08FA0CF8C2F8148091F803C06B
:1020D000BCF1480F07D100F1080C4FF0010808FAD5
:1020E0000CF8C2F81080401C0828CED35460BDE81C
:1020F000F0814FF6FF710180022181700421C170CF
:1021000070470246002093680B400BB1012000E0AD
:10211000002070470146886880B270470246002060
:10212000D3680B400BB1012000E00020704701464E
:10213000C86880B2704701617047416170470AB159
:10214000016100E041617047C16070474FF4803227
:102150000A438261816182618269826970470246B5
:102160000020434B18684FF68073184040EA021075
:1021700008433F4B186070473E49C8617047F0B54F
:102180000A46002300240021002500F00046B6F195
:10219000004F02D1364EF16901E0354E7168C0F34F
:1021A000034583B200F44016B6F5401F08D121F074
:1021B00070612F4E766826F070662D4F7E6012E0BB
:1021C00000F48016B6F5801F06D1032606FA05F442
:1021D000A14341F0706106E0460D360103FA06F6B0
:1021E000B14341F0706122B1460D360103FA06F6A3
:1021F000314300F00046B6F1004F02D11C4EF161B0
:1022000001E01B4E7160F0BD30B500228B071C0F42
:102210000F2303FA04F2164B08338C1053F82430C2
:102220009343134C08348D1044F8253023468C100A
:1022300053F824308C07240F00FA04F423430C4C89
:1022400008348D1044F8253030BD0A49DC3108606F
:102250007047000000080140000C014000100140E0
:102260000014014000180140001C01400020014002
:102270000000014000002042DF48006840F00100FB
:10228000DD49086008464068DC490840DA49486092
:1022900008460068DA490840D749086008460068DF
:1022A00020F4802008600846406820F4FE00486062
:1022B0004FF41F0088607047CF49096821F48031CE
:1022C000CD4A11601146096821F480211160B0F5F2
:1022D000803F03D0B0F5802F0ED106E0C6490968D3
:1022E00041F48031C44A116007E0C349096841F4F0
:1022F000A021C14A116000E000BF00BF704710B5C7
:1023000001460022002300204A11012A02D1BA4CC2
:10231000236806E0022A02D1B74C236A01E0B64CDA
:10232000636A01F01F02012494401C400CB101209B
:1023300000E0002010BD38B50020009000240025EA
:1023400000BF3120FFF7DBFF05460098401C0090DE
:102350000098B0F5A06F01D0002DF2D03120FFF72A
:10236000CEFF08B1012400E00024204638BD01461C
:102370000020A14A106820F0F80040EAC100106077
:102380007047A04908607047024600209A4B586881
:1023900020F47C1042EA01031843974B58607047C1
:1023A00098490866704701460020934A506820F01B
:1023B00003000843506070478F48406800F00C00ED
:1023C0007047014600208C4A506820F0F000084316
:1023D0005060704701460020874A506820F4E06052
:1023E00008435060704701460020834A506820F43B
:1023F000605040EAC1005060704729B17E4A527A6D
:1024000002437D4B5A7204E07B4A527A82437A4BF4
:102410005A7270477B49D8310860704701460020E6
:10242000754A506820F440400843506070470021CE
:10243000714A20321170704A82F82010012802D0AF
:1024400004280AD104E001216B4A2032117005E012
:102450000521694A2032117000E000BF00BF7047BB
:102460006949086070476449096A0143624A116218
:102470007047654944390860704730B50021002233
:10248000002400235C4D6D6805F00C0121B1042986
:1024900005D0082923D105E05C4D056022E05B4DA5
:1024A00005601FE0544D6D6805F47012524D6D6863
:1024B00005F48034022505EB92421CB9544D554376
:1024C00005600BE04C4D6D6805F400351DB1504DB5
:1024D0005543056002E04D4D5543056002E04B4D0C
:1024E000056000BF00BF444D6D6805F0F0010909AB
:1024F000484D6B5C0568DD4045603F4D6D6805F4F7
:10250000E061090A434D6B5C4568DD4085603A4DEA
:102510006D6805F46051C90A3E4D6B5C4568DD404D
:10252000C560354D6D6805F44041890B3A4D6B5CD3
:10253000C568B5FBF3F5056130BD29B12E4A526976
:1025400002432D4B5A6104E02B4A526982432A4BC5
:102550005A61704729B1284A92690243264B9A6111
:1025600004E0254A92698243234B9A61704729B15E
:10257000214AD2690243204BDA6104E01E4AD26943
:1025800082431D4BDA61704729B11B4AD26802436E
:10259000194BDA6004E0184AD2688243164BDA60BD
:1025A000704729B1144A12690243134B1A6104E0BF
:1025B000114A12698243104B1A617047124940391F
:1025C000086070470F49C86470470B49C87170476D
:1025D0000948406A40F080700749486270470146E8
:1025E0000020054A92680A400AB1012000E000205C
:1025F0007047014988727047001002400000FFF8E0
:10260000FFFFF6FE000042428004424200127A00C0
:1026100000093D00B0000020C000002009488047AC
:1026200009480047FEE7FEE7FEE7FEE7FEE7FEE7B4
:10263000FEE7FEE7FEE7FEE704480549054A064BCC
:10264000704700003B2700083101000818460020B1
:10265000184C002018480020184800200CB5002015
:10266000019000906C48006840F480306A4908602E
:1026700000BF6948006800F4003000900198401CD9
:102680000190009818B90198B0F5A06FF1D1624897
:10269000006800F4003010B10120009001E000203B
:1026A00000900098012843D15C48006840F0100079
:1026B0005A4908600846006820F003000860084690
:1026C000006840F002000860534840685249486082
:1026D0000846406848600846406840F480604860AA
:1026E0000846406820F47C1048600846406840F482
:1026F000E81048600846006840F08070086000BF3D
:102700004548006800F000700028F9D04248406851
:1027100020F00300404948600846406840F002004D
:10272000486000BF3C48406800F00C000828F9D120
:102730000CBD10B5FFF792FF10BD10B5364800680C
:1027400040F00100344908600846406834490840B8
:102750003149486008460068324908402E490860FF
:102760000846006820F4802008600846406820F48D
:10277000FE0048604FF41F008860FFF7DAFF4FF05B
:1027800000602949086010BD10B50021002000221A
:10279000214B5B6803F00C0121B1042906D0082904
:1027A00028D107E0214B224C236027E01F4B204C0F
:1027B000236023E0184B5B6803F47010164B5B68D2
:1027C00003F48032022303EB904022B9194B4343B8
:1027D000174C23600DE0104B5B6803F4003323B10A
:1027E000144B4343124C236003E0104B4343104C03
:1027F000236003E00D4B0E4C236000BF00BF064B6F
:102800005B68C3F303130C4CE15C094B1B68CB40C2
:10281000074C236010BD0000001002400020024061
:102820000000FFF8FFFFF6FE08ED00E000127A005E
:10283000C400002000093D00C800002010B5044677
:10284000FE48844208D10121C014FFF79DFE0021FB
:10285000E014FFF799FEC4E0B4F1804F08D10121E4
:102860000846FFF79EFE00210120FFF79AFEB8E020
:10287000F348844208D101210220FFF792FE002193
:102880000220FFF78EFEACE0EE48844208D1012121
:102890000420FFF786FE00210420FFF782FEA0E05F
:1028A000E948844208D101210820FFF77AFE00217F
:1028B0000820FFF776FE94E0E448844208D1012125
:1028C0001020FFF76EFE00211020FFF76AFE88E05F
:1028D000DF48844208D101212020FFF762FE002159
:1028E0002020FFF75EFE7CE0DA48844208D1012117
:1028F0004014FFF749FE00216014FFF745FE70E029
:10290000D548844209D10121C804FFF73DFE0021CA
:102910004FF40020FFF738FE63E0D048844209D12D
:1029200001210805FFF730FE00214FF48010FFF76A
:102930002BFE56E0CA48844209D101214805FFF721
:1029400023FE00214FF40010FFF71EFE49E0C548AA
:10295000844208D101214020FFF723FE00214020BE
:10296000FFF71FFE3DE0C048844208D101218020CE
:10297000FFF717FE00218020FFF713FE31E0BB4870
:10298000844208D101218015FFF70BFE0021A0151C
:10299000FFF707FE25E0B648844209D1012108046B
:1029A000FFF7F2FD00214FF48030FFF7EDFD18E056
:1029B000B048844209D101214804FFF7E5FD002118
:1029C0004FF40030FFF7E0FD0BE0AB48844208D144
:1029D00001218804FFF7D8FD00214FF48020FFF784
:1029E000D3FD10BD00220288944B98420ED0994B23
:1029F00098420BD0B0F1804F08D0914B984205D04F
:102A0000904B984202D0904B984204D14FF68F736E
:102A10001A404B881A438D4B984207D08C4B9842F2
:102A200004D04FF6FF431A40CB881A4302808B88AC
:102A300083850B880385814B98420BD0854B984248
:102A400008D08B4B984205D08A4B984202D08A4BD3
:102A5000984201D10B7A038601238382704770B5B7
:102A6000002400220023058C4FF6FE7635400584B5
:102A7000028C8388048B4FF68F752C40B51E2C403A
:102A80000D882C43751E2A400D892A434D882A4300
:102A90006A4DA8420BD06F4DA84208D0744DA84291
:102AA00005D0744DA84202D0734DA84213D14FF601
:102AB000F7752A404D892A434FF6FB752A408D88C9
:102AC0002A434FF6FF652B404FF6FF552B408D896B
:102AD0002B43CD892B4383800483CD888586028454
:102AE00070BD70B5002400220023058C4FF6EF76F0
:102AF00035400584028C8388048B48F6FF752C4092
:102B00004FF6FF452C400D884FF6FF7606EA052567
:102B10002C434FF6DF752A400D8906EA05152A4336
:102B20004D8806EA05152A43444DA84202D0494D76
:102B3000A8421DD14FF67F752A404D894FF6FF768A
:102B400006EA05152A434FF6BF752A408D8806EA26
:102B500005152A434FF6FF352B404FF2FF752B40EA
:102B60008D8906EA85052B43CD8906EA85052B4329
:102B700083800483CD880587028470BD70B50024EE
:102B800000220023058C4FF6FF6635400584028C39
:102B90008388848B4FF68F752C404FF6FC752C4044
:102BA0000D882C434FF6FF552A400D894FF6FF76CE
:102BB00006EA05252A434D8806EA05252A431F4DC6
:102BC000A84202D0234DA8421DD14FF2FF752A40E2
:102BD0004D894FF6FF7606EA05252A434FF6FF3565
:102BE0002A408D8806EA05252A434EF6FF752B40BC
:102BF0004DF6FF752B408D8906EA05152B43CD89CF
:102C000006EA05152B4383808483CD88858702845B
:102C100070BD70B5002200230024058C4EF6FF76AF
:102C200035400584038C8488828B48F6FF752A40E2
:102C30004FF6FF452A400D8820E00000002C01409F
:102C40000004004000080040000C0040001000405C
:102C50000014004000340140004C0140005001408D
:102C60000054014000180040001C004000200040BB
:102C70000040014000440140004801404FF6FF760B
:102C800006EA05252A434DF6FF752B400D8906EA15
:102C900005352B434D8806EA05352B43FA4DA842EE
:102CA00002D0FA4DA84208D14BF6FF752C408D8911
:102CB0004FF6FF7606EA85152C4384808283CD8803
:102CC000A0F84050038470BD828B4FF2FF331A404E
:102CD0008283828B4FF6FF7303EA01231A438283B8
:102CE0007047F0B50C461546002200210026078CDF
:102CF0004EF6FF7C07EA0C070784828B018C4FF6A7
:102D0000FF7707EA043640F6FF473A404FF6FF7771
:102D100007EA05273A434FF6FF7707EA03373A43B6
:102D2000D94FB8420ED0D94FB8420BD0B0F1804F36
:102D300008D0D74FB84205D0D64FB84202D0D64FB0
:102D4000B84206D14DF6FF77394046F480573943F3
:102D500005E047F6FF57394044F4805739438283F2
:102D60000184F0BD828B4FF6F3731A408283828B0D
:102D70000A4382837047F0B50C46154600220021B5
:102D80000026078C4FF6FF6C07EA0C070784828B3E
:102D9000018C4FF6FF7707EA04264FF60C773A408E
:102DA0004FF6FF7707EA03172F433A43B64FB8426F
:102DB0000ED0B64FB8420BD0B0F1804F08D0B44F10
:102DC000B84205D0B34FB84202D0B34FB84206D193
:102DD0004FF6FF57394046F48077394305E04FF20C
:102DE000FF57394044F48077394382830184F0BD32
:102DF000028B4FF2FF331A400283028B4FF6FF73B0
:102E000003EA01231A4302837047F0B50C461546C6
:102E1000002200210026078C4FF6EF7C07EA0C0702
:102E20000784028B018C4FF6FF7707EA041640F601
:102E3000FF473A404FF6FF7707EA03373A434FF62A
:102E4000FF7707EA05273A438F4FB8420ED08F4FDE
:102E5000B8420BD0B0F1804F08D08D4FB84205D0AA
:102E60008C4FB84202D08C4FB84206D14FF6DF7774
:102E7000394046F01007394305E04FF65F77394097
:102E800044F01007394302830184F0BD028B4FF6F2
:102E9000F3731A400283028B0A4302837047F0B532
:102EA0000C46154600220021068C4FF6FE773E4068
:102EB0000684028B018C4FF60C7632407E1C06EAAB
:102EC00003162E433243704EB0420ED06F4EB042C6
:102ED0000BD0B0F1804F08D06D4EB04205D06D4E92
:102EE000B04202D06C4EB04206D14FF6FD76314072
:102EF00044F00106314305E04FF6F576314044F0E9
:102F00000106314302830184F0BD70B505460C46CD
:102F10005D4885420ED05D4885420BD0B5F1804FAB
:102F200008D05B48854205D05A48854202D05A48AD
:102F3000854200D100E000BF208850B92389A288D3
:102F400061882846FFF7ABFFE1882846FFF79EFF20
:102F500025E0208804280AD12389A2886188284690
:102F6000FFF753FFE1882846FFF742FF17E020886C
:102F700008280AD12389A28861882846FFF7FBFE2A
:102F8000E1882846FFF7EEFE09E02389A2886188E0
:102F90002846FFF7A6FEE1882846FFF795FE70BD9C
:102FA0002DE9F04105460C4600260127608808B946
:102FB000022600E00026A088012801D1022700E0B7
:102FC00001272088A0B92389A28861882846FFF7B5
:102FD00066FFE1882846FFF759FF23893A463146C4
:102FE0002846FFF712FFE1882846FFF701FF13E0AC
:102FF0002389A28861882846FFF707FFE1882846D1
:10300000FFF7F6FE23893A4631462846FFF747FF89
:10301000E1882846FFF73AFFBDE8F0810A884B882F
:103020001A438B881A43CB881A430B891A434B895E
:103030001A438B891A43A0F8442070474FF6FF715A
:10304000818000210180C180418001727047002190
:10305000018041808180C180018141818181C18164
:103060007047002101804180012181800021C180C1
:10307000018170470021018041808180C1800181F0
:103080004181818170470000002C014000340140E3
:103090000004004000080040000C004021B10288FC
:1030A00042F00102028004E002884FF6FE731A40EB
:1030B0000280704731B1B0F8442042F40042A0F8D9
:1030C000442005E0B0F84420C2F30E02A0F84420EA
:1030D00070471AB183890B43838102E083898B4354
:1030E000838170478182704741EA0203A0F848302B
:1030F00070471AB183890B43838102E083898B4334
:103100008381704701894FF6F87211400181704741
:103110000A46002101894FF68F731940114301813E
:10312000704730B504460D4629462046FFF7F0FFAC
:10313000208940F00700208130BD2DE9F041044690
:103140000D4616461F46602D06D13B4601223146EC
:103150002046FFF75AFE05E03B4601223146204655
:10316000FFF79DFE29462046FFF7D2FF208940F059
:1031700007002081BDE8F08130B50C4600210189AF
:10318000C9B24FF6FF7505EA0325154325432943C8
:10319000018130BD2DE9F04105460E46174698469F
:1031A000002443463A4631462846FFF7E5FF2C897E
:1031B0004FF6F870044044F007044FF68F70044057
:1031C00044F070042C81BDE8F081F0B504460D4652
:1031D00016461F463B46324629462046FFF7CCFF9F
:1031E000208940F480402081F0BD018582827047B3
:1031F0000A46002101884FF68F7319401143018060
:103200007047F0B50C4615461E46002100220023EB
:103210000189028B038C4FF6F877394021434FF632
:10322000FC473A4040F201173A434FF6DD773B4006
:103230004FF6FF7707EA06172F433B4301810283CE
:103240000384F0BD0A460021018B4FF68F731940AD
:103250001143018370470A460021018B48F6FF7332
:1032600019404FF6FF7303EA0223194301837047A5
:103270000A460021818B4FF68F73194011438183D9
:1032800070470A460021818B48F6FF7319404FF6BC
:10329000FF7303EA022319438183704721B1028837
:1032A00042F08002028004E002884FF67F731A40E9
:1032B0000280704721B1828842F00402828004E0DB
:1032C00082884FF6FB731A408280704721B1828852
:1032D00042F00802828004E082884FF6F7731A40B9
:1032E0008280704721B1828842F00102828004E02E
:1032F00082884FF6FE731A40828070470A4600218A
:10330000018B4FF6F77319401143018370470A464A
:103310000021018B4FF2FF7319404FF6FF7303EA50
:1033200002231943018370470A460021818B4FF61F
:10333000F77319401143818370470A460021818B3E
:103340004FF2FF7319404FF6FF7303EA022319434C
:10335000818370470A460021018B4FF6FB731940A9
:103360001143018370470A460021018B4FF6FF335A
:1033700019404FF6FF7303EA022319430183704794
:103380000A460021818B4FF6FB731940114381835C
:1033900070470A460021818B4FF6FF3319404FF6E4
:1033A000FF7303EA02231943818370470A46002111
:1033B000018B4FF67F7319401143018370470A4612
:1033C0000021018BC1F30E014FF6FF7303EA0223C4
:1033D0001943018370470A460021818B4FF67F73A2
:1033E00019401143818370470A460021818BC1F344
:1033F0000E014FF6FF7303EA0223194381837047DE
:103400000A460021018C4FF6FD73194011430184D7
:1034100070470A460021018C4FF6F773194011439B
:10342000018470470A460021018C4FF6DF73194072
:103430004FF6FF7303EA02131943018470470A46EB
:103440000021018C4FF67F7319404FF6FF7303EA9A
:1034500002131943018470470A460021018C4FF67C
:10346000FF5319404FF6FF7303EA02231943018407
:1034700070470A460021018C4FF2FF7319404FF646
:10348000FF7303EA02231943018470470A460021AF
:10349000018C4DF6FF7319404FF6FF7303EA0233B8
:1034A00019430184704730B5002301248C40A3B236
:1034B000048C9C430484048C02FA01F5ADB22C43C5
:1034C000048430BD30B5002304248C40A3B2048CA6
:1034D0009C430484048C02FA01F5ADB22C430484AD
:1034E00030BD70B503460020002418461830012571
:1034F0008D40ACB21D8CA5431D8409B1082909D1AA
:1035000000EB6100056825F070050560056815434E
:1035100005600EE00D1FC5F34E052844056825F42F
:10352000E045056005684FF6FF7606EA022635435A
:10353000056070BD21B1028842F00202028004E001
:1035400002884FF6FD731A400280704721B102884D
:1035500042F00402028004E002884FF6FB731A4036
:103560000280704721B1828842F08002828004E0AC
:1035700082884FF67F731A408280704702884FF628
:10358000F7731A40028002880A43028070478288DB
:103590004FF68F731A40828082880A438280704778
:1035A00002894FF6F8731A40028102890A430281A8
:1035B000704702894FF67F731A40028102890A43DD
:1035C000028170478184704781857047818670478A
:1035D0000187704781877047A0F8401070470288C4
:1035E0004FF6FF431A40028002880A430280704768
:1035F0000146888E70470146088F70470146888FC4
:1036000070470146B1F8400070470146888C70470A
:103610000146088D704702460020138A0B400BB10B
:10362000012000E000207047CA430282704730B595
:103630000246002000230024158A05EA010395892B
:1036400005EA010413B10CB1012000E0002030BDF7
:10365000CA4302827047704770477047754600F052
:1036600029F8AE4605006946534620F00700854616
:1036700018B020B5FEF7E0FFBDE820404FF000068F
:103680004FF000074FF000084FF0000B21F007014A
:10369000AC46ACE8C009ACE8C009ACE8C009ACE88D
:1036A000C0098D4670470446AFF300802046FCF702
:1036B00086FD000000487047B845002001491820E9
:1036C000ABBEFEE72600020070470000EC360008A3
:1036D00000000020D80000006C010008C43700087A
:1036E000D8000020404B000088010008039F250DF2
:1036F0009949411F0109029E240C9848401E000868
:10370000FDFF0102040810204080000000000000BE
:1037100000000000000000000000000000000000A9
:103720000000000000000000000000000000000099
:103730000000000000000000000000000000000089
:103740000000000000000000000000000000000079
:103750000000000000000000000000000000000069
:103760000000000000000000000000000000000059
:103770000000000000000000000000000000000049
:10378000AAAAAAAA00000000000000000000000091
:103790000000000000000000000000000000000029
:1037A00001020304010203040607080902040608D3
:1037B00000A24A040000000000000000010203040F
:0437C00006070809E7
:0400000508000131BD
:00000001FF
