:020000040800F2
:10000000680C0020D1370008CD020008CF0200089C
:10001000D3020008D7020008DB020008000000003D
:10002000000000000000000000000000E1020008E5
:10003000DF02000800000000E3020008E5020008FB
:10004000EB370008EB370008EB370008E702000841
:10005000EB370008EB370008EB370008EB370008F8
:10006000EB370008EB370008EB370008EB370008E8
:10007000EB370008EB370008EB370008EB370008D8
:10008000EB370008EB370008EB370008EB370008C8
:10009000EB370008EB370008EB370008EB370008B8
:1000A000EB370008EB370008EB370008EB370008A8
:1000B000EB370008EB370008EB370008EB37000898
:1000C000EB370008EB370008EB370008EB37000888
:1000D000EB370008EB370008EB370008EB37000878
:1000E000FD020008EB370008EB37000800F002F8CB
:1000F00000F05AF80AA090E8000C82448344AAF168
:100100000107DA4501D100F04FF8AFF2090EBAE865
:100110000F0013F0010F18BFFB1A43F0010318473B
:1001200044390000643900000A444FF0000C10F814
:10013000013B13F0070408BF10F8014B1D1108BF65
:1001400010F8015B641E05D010F8016B641E01F805
:10015000016BF9D113F0080F1EBF10F8014BAD1C55
:100160000C1B09D16D1E58BF01F801CBFAD505E073
:1001700014F8016B01F8016B6D1EF9D59142D6D3CD
:10018000704700000023002400250026103A28BFF5
:1001900078C1FBD8520728BF30C148BF0B607047F9
:1001A0001FB51FBD10B510BD03F025FC1146FFF7AC
:1001B000F7FF00F055F803F043FC03B4FFF7F2FF3C
:1001C00003BC03F047FC0000224B19680868B0E844
:1001D000F00F80F30988BFF36F8F4FF0000080F3BA
:1001E00011884EF00D0E70470000000006480068B0
:1001F000006880F3088862B661B6BFF34F8FBFF323
:100200006F8F00DF00BF00BF08ED00E0EFF3098053
:10021000BFF36F8F0F4B1A6820E9F00F106008B51D
:100220004FF0BF0080F31188BFF34F8FBFF36F8F84
:1002300000F0C7FF4FF0000080F31188BDE80840D0
:1002400019680868B0E8F00F80F30988BFF36F8F72
:10025000704700BFC0000020EFF30580704700002A
:1002600070B5174800684FF47A72B0FBF2F1481E7F
:10027000B0F1807F00D31BE0481E4FF0E0225061B8
:1002800050170F22002807DA13071D0E0D4B00F040
:100290000F04241F1D5503E013071C0E0A4B1C54AA
:1002A00000BF00204FF0E02290610720106100BFE6
:1002B00000F0B2F801F081FD01F0E6F8002070BD19
:1002C0002C01002018ED00E000E400E0704700BFC2
:1002D000FEE700BFFEE700BFFEE700BFFEE7704796
:1002E00070477047704710B5012002F049FB20B1FC
:1002F000012002F055FB02F015FB10BD10B54FF4C4
:10030000805001F0B3FEA8B3012000F039FB20B10A
:10031000012820D0022828D11EE04FF480513C480B
:1003200001F0B1FF58B14FF40051394801F0ABFF73
:1003300010B100F0AAFA0DE000F0B3FA0AE04FF4B1
:100340000051334801F09FFF10B100F0AAFA01E01C
:1003500000F09BFA09E008E04FF480512C4801F0CE
:1003600092FF08B100F091FA00BF00BF4FF4805037
:10037000284908604FF4005001F078FE002846D06C
:10038000012000F0FDFA20B1012820D0022839D147
:100390002FE04FF400511E4801F075FF58B14FF4A3
:1003A00080511B4801F06FFF10B100F07AFA0DE0A8
:1003B00000F06BFA0AE04FF48051154801F063FF3A
:1003C00010B100F062FA01E000F06BFA1AE04FF4AD
:1003D00000510F4801F057FF50B14FF480510C48C5
:1003E00001F051FF10B100F050FA01E000F059FAAD
:1003F00008E04FF48051064801F045FF08B100F0D5
:1004000050FA00BF00BF4FF400500249086010BD11
:10041000001401401404014008B50121102002F02D
:10042000C1F910208DF8030001208DF8020040036F
:10043000ADF8000069461C4801F092FE4FF40051EF
:10044000194801F03AFF4FF40051174801F037FF07
:1004500008BD10B5044604F0010028B14FF48071C6
:10046000124801F02AFF04E04FF480710F4801F0B8
:1004700026FF04F0020028B14FF480710B4801F010
:100480001CFF04E04FF48071084801F018FF04F0ED
:10049000040020B18021054801F00FFF03E0802116
:1004A000024801F00CFF10BD00100140001801408F
:1004B000012000BF0100A0F10100FBD1704708B589
:1004C0000121082002F06EF910208DF803000220AF
:1004D0008DF802008003ADF8000069468F4801F0F6
:1004E0003FFE4FF40050ADF8000069468B4801F024
:1004F00037FE4FF48050ADF800006946874801F0A0
:100500002FFE08BD70B50546002427E045FA04F02B
:1005100000F0010078B14FF40041804801F0CDFEB9
:100520004FF400517D4801F0C8FE4FF400517B4864
:1005300001F0C5FE0EE04FF40041784801F0BFFE27
:100540004FF40051754801F0B8FE4FF40051734864
:1005500001F0B5FEFFF7ACFF601CC4B2082CD5DB80
:1005600070BD2DE9F04104460D4616461F466C4904
:10057000C95DC943C8B2FFF7C5FF6A49885DFFF787
:10058000C1FF6849485DFFF7BDFF6649085DFFF799
:10059000B9FF4FF48051614801F08FFEFFF788FFEB
:1005A0004FF480515D4801F08AFEBDE8F0810246BB
:1005B00000200AE012B114230B5401E015230B5460
:1005C0000A23B2FBF3F2431CD8B20828F2DB7047CF
:1005D000F0B50346002900DA0021002B03DA1426C7
:1005E000D6715B4201E01526D67100201FE0012480
:1005F000002504E004EB840674006E1CF5B285420D
:10060000F8DBA34201D288420DDCB3FBF4F60A27E3
:10061000B6FBF7FC07FB1C661654884205D1165C36
:100620000A36165401E015261654461C70B20728E7
:10063000DDDBF0BD2DE9F84F05460E4617469B461B
:10064000BBF1080F60D2DFE80BF01A1B1C1D1E1F48
:100650002004002D02DA4FF0140801E04FF01508D5
:10066000002E02DA4FF0140901E04FF01509002FB7
:1006700002DA4FF0140A01E04FF0150A44E000BF1F
:1006800000BF00BF00BF00BF00BF002D00DA6D42F9
:10069000002E00DA7642002F00DA7F42012400208B
:1006A000009006E004EB840044000098401CC0B2B7
:1006B000009000985845F5DBA54200D23DB9B5FB46
:1006C000F4F00A21B0FBF1F201FB120801E04FF057
:1006D0001508A64200D23EB9B6FBF4F00A21B0FBE1
:1006E000F1F201FB120901E04FF01509A74200D217
:1006F0003FB9B7FBF4F00A21B0FBF1F201FB120A9B
:1007000001E04FF0150A00BF00BF5B465246494664
:100710004046FFF726FFBDE8F88F0000000C0140BF
:1007200018000020000000206E49086070476E49E4
:10073000086070476D490860704710B501210C20B2
:1007400002F03DF8012142F2350002F02BF80420BE
:100750006749C870032088700880664801F000FD72
:100760000121654801F0CDFD00231A4603216348AD
:1007700002F003FE4FF6FF71604802F0E1FF4FF414
:10078000FA415E4802F0DAFF01215C4802F042FDC6
:1007900004205749C8700320887000F00DF9042028
:1007A0005349C87003208870C0200880544801F065
:1007B000D7FC00231A460321524802F0DEFD4FF613
:1007C000FF71504802F0BCFF4FF4FA414D4802F06F
:1007D000B5FF01214B4802F01DFD102000F0D8F8B4
:1007E0000446FFF7A7FF122000F0D2F80446FFF7F7
:1007F0009EFF142000F0CCF80446FFF795FF10BDD3
:1008000070B53E4824300088A0F5FA444FF4FA4011
:100810003A4924310880022000F0B2F800FB04F5C8
:10082000052000F0ADF895FBF0F030490968084468
:100830002E49086008460168102000F090F810204A
:1008400000F0A6F870BD70B52E4824300088A0F5E1
:10085000FA444FF4FA402B4924310880032000F079
:100860008FF800FB04F5062000F08AF895FBF0F005
:100870001D49096808441C4908600846016812209F
:1008800000F06DF81848006870BD10B51548006894
:10089000401C1449086008460168142000F05FF805
:1008A00010BD10B50F480068401E0E49086008468C
:1008B0000168142000F053F810BD0A480068704722
:1008C00010B5042000F05CF80649096800FB01F44B
:1008D000072000F055F894FBF0F00B49086008463B
:1008E000006810BD28000020240000202000002007
:1008F000680000200008014001002000000C0040BA
:1009000000100140003401406000002010B50121BA
:100910004FF0C05001F053FF012001F07AFD10BDEF
:1009200008B54FF4C06001F05DFA03208DF80000B7
:1009300001208DF8010000208DF8020001208DF8C3
:100940000300684601F053FA08BD70B504460D4631
:10095000184931F81400294601F0DBFA70BD70B572
:1009600004460D46290C134A32F8140001F0D1FA5E
:10097000A9B2104B621C33F8120001F0CAFA70BD24
:1009800010B504460B4931F8140001F0CEFA10BD41
:1009900070B50446074A611C32F8110001F0C5FA2F
:1009A0000546044931F8140001F0BFFA45EA004059
:1009B00070BD00006C0000201FB50121202001F057
:1009C000F1FE0121084601F0EDFE4FF44050ADF874
:1009D0000C0048208DF80F0003A9174801F0C0FB58
:1009E0000C21032001F0D2FC0D21032001F0CEFCEC
:1009F0004FF48050009000208DF8040010208DF8F6
:100A0000050001208DF80600684601F0C9FA4FF490
:100A100000500090684601F0C3FA28208DF80800C5
:100A200000208DF809008DF80A0001208DF80B00D8
:100A300002A801F0DCF91FBD0014014000F108011B
:100A400041604FF0FF31816000F10801C160016138
:100A500000210160704700210161704742684A60CF
:100A600093688B60936859609160086103685B1CB0
:100A70000360704710B502460B685C1C0CB9106926
:100A800007E002F1080000E04068446824689C42E6
:100A9000FAD944684C604C68A160886041600A6182
:100AA0001468641C146010BD01460A69D1E9013064
:100AB0009860D1E9010358605068884201D1886884
:100AC0005060002008611068401E10601068704778
:100AD00010B5002407E004EB8401FE4A02EB81001C
:100AE000FFF7ACFF641C052CF5D3FB48FFF7A6FF0E
:100AF000FA48FFF7A3FFFA48FFF7A0FFF948FFF70E
:100B00009DFFF948FFF79AFFF348F8490860F3485A
:100B1000F749086010BD10B5044600F0E0FFF54845
:100B20000068401CF3490860F348006840B9F24887
:100B300004600846006801280DD1FFF7C9FF0AE0EC
:100B4000EE48006838B9EC480068C06AE16A88423B
:100B500001D8E9480460EA480068401CE849086098
:100B600094F82C1001208840E64909680843E549BB
:100B70000860E16A01EB8101D64A02EB8100211D88
:100B8000FFF76CFF00F0BAFFDC48006868B1DA4894
:100B90000068C06AE16A884207D24FF08050DA49A3
:100BA0000860BFF34F8FBFF36F8F10BD2DE9FF5F5C
:100BB00080460E469146DDE90E7A109CA9F10100AF
:100BC000216B01EB800B2BF0070B002507E0715D1B
:100BD00004F134004155705D00B902E06D1C102D28
:100BE000F5D300BF002143200155052F00D3042772
:100BF000E762201DFFF72FFF04F11800FFF72BFF1E
:100C00002461C7F10500A06164620020606484F87B
:100C1000480041465846039A00F035FF2060BAF17B
:100C2000000F01D0CAF80040BDE8FF9F2DE9FF4F3B
:100C300085B0804689461746DDE912ABB80000F062
:100C4000ECFF064656B14C2000F0E7FF04460CB11D
:100C5000266304E0304601F03EF800E000247CB159
:100C60000020CDE900ABCDE902403A464946404676
:100C7000089BFFF79BFF2046FFF74DFF012501E092
:100C80004FF0FF35284609B0BDE8F08F9749096855
:100C9000096809B9012100E0002121B14FF0FF31BD
:100CA0009A4A116006E091490968C968C868974A7C
:100CB00041681160704710B50446206B01F00BF8D5
:100CC000204601F008F810BD70B5054600F007FF9A
:100CD00015B98948006800E028460446201DFFF742
:100CE000E3FE78B9E06A00EB80007A4951F8200011
:100CF00040B994F82C10012088408249096881434A
:100D000080480160A06A18B104F11800FFF7CCFE1A
:100D10007B480068401C7A49086077480068844234
:100D200009D1211D6F48FFF799FE79480068401CE2
:100D30007749086009E06F480068401E6D49086007
:100D40002046FFF7B8FFFFF7A1FF00F0D7FE6B4882
:100D5000006858B168480068844207D14FF080505D
:100D600069490860BFF34F8FBFF36F8F70BD2DE9E6
:100D7000F041002767480068002863D16648006892
:100D8000451C654805608DB95848D0F80080584822
:100D90000068564908605648C0F800805F480068FF
:100DA000401C5E490860FFF771FF00BF57480068AC
:100DB00085423BD300BF4D480068006808B9012058
:100DC00000E0002020B14FF0FF30504908602CE0D7
:100DD00046480068C068C4686668B54202D24B489D
:100DE000066022E0201DFFF75FFEA06A18B104F143
:100DF0001800FFF759FE94F82C1001208840414953
:100E0000096808433F490860E16A01EB8101314A02
:100E100002EB8100211DFFF721FE3749E06A0968D6
:100E2000C96A8842C7D30127C5E700BF32480068B6
:100E3000C06A00EB8000274951F82000012800D942
:100E4000012704E036480068401C354908603548F1
:100E5000006800B101273846BDE8F08170B5002474
:100E6000002600F03CFE2B480068401E294908601F
:100E70000846006800287BD11E480068002877D00B
:100E800024E01748C068C46804F11800FFF70CFE9E
:100E9000201DFFF709FE94F82C1001208840194905
:100EA0000968084317490860E16A01EB8101094AB2
:100EB00002EB8100211DFFF7D1FD0F49E06A0968AF
:100EC000C96A884202D301201649086004480068B4
:100ED00050BB2AE040010020A4010020B8010020FE
:100EE000CC010020E0010020F4010020C40000201B
:100EF000C8000020D0000020C0000020DC0000203E
:100F0000EC000020D800002004ED00E0F0000020FC
:100F1000CC000020F8000020D4000020E8000020D1
:100F2000E0000020E400002001E0012000E00020BB
:100F30000028A6D00CB1FFF7A9FEFD48056865B1F1
:100F400000BFFFF714FF10B10120FA4908606D1EC1
:100F5000002DF6D10020F6490860F648006838B147
:100F600001263007F4490860BFF34F8FBFF36F8F3E
:100F700000F0C4FD304670BD2DE9F04105460E4637
:100F8000EE480768EE480068001DFFF78DFD50B978
:100F9000EB48006890F82C1001208840E949096866
:100FA0008143E8480160681C38B936B1E4480168FB
:100FB000091DE548FFF752FD1AE07C19E04800687A
:100FC0004460BC4207D2DE480168091DDF48006862
:100FD000FFF750FD0CE0DA480168091DDC480068A5
:100FE000FFF748FDDB480068844201D2D94804601D
:100FF000BDE8F081D8480068401CD74908607047B8
:101000002DE9F047044688464FF00009FFF7F2FF4C
:10101000CA480668206800EB08052068B04207D976
:101020002068A8420BD9B54209D94FF0010906E062
:101030002068A84201D8B54201D94FF001092560C6
:10104000B9F1000F03D0A81B0021FFF795FFFFF7B0
:1010500005FF07463FB94FF08050B7490860BFF31E
:101060004F8FBFF36F8FBDE8F08770B50446002542
:1010700044B1FFF7BFFF00212046FFF77DFFFFF7D8
:10108000EDFE05463DB94FF08050AB490860BFF317
:101090004F8FBFF36F8F70BD70B5044600F01FFD1A
:1010A00014B9A748006800E020460646F56A00F03B
:1010B00025FD284670BD70B5024600BFBF25EFF381
:1010C000118485F31188BFF34F8FBFF36F8F00BF7B
:1010D000214612B99A4C246800E014462346D86A87
:1010E00000BF81F3118800BF70BD2DE9F047804635
:1010F0000D464FF00009052D00D3042500F0EFFC4C
:10110000B8F1000F02D18E48006800E04046044666
:10111000E66AAE4251D0B5420BD989480068844294
:101120000DD087480068C06AA84208D84FF001096E
:1011300005E083480068844201D14FF00109E76A65
:10114000E562A06900F0004010B9C5F10500A0619A
:1011500007EB8701814A02EB81016069884201D176
:10116000012000E00020E0B1201DFFF79DFC30B918
:101170000120B8407349096881437248016094F8BE
:101180002C10012088406F49096808436D490860A8
:10119000E16A01EB8101714A02EB8100211DFFF739
:1011A0005DFCB9F1000F07D04FF080506249086034
:1011B000BFF34F8FBFF36F8F00BF00F09FFCBDE800
:1011C000F0876548006818B101205A4908601DE0A1
:1011D0000020584908605B480068B0FA80F0C0F110
:1011E0001F0101EB81025D4B03EB820042685268F4
:1011F000426000F108024368934202D1426852689B
:1012000042604268D2684E4B1A6000BF704770B5AA
:10121000054600F064FC15B94948006800E028461E
:101220000446201DFFF740FC78B9E06A00EB80001F
:101230004A4951F8200040B994F82C100120884008
:101240004049096881433F480160A06A18B104F130
:101250001800FFF729FC211D3B48FFF7FFFB00F0BA
:101260004DFC3F48006828B100F039FCFFF70EFD47
:1012700000F044FC32480068844217D138480068C6
:1012800040B14FF080502C490860BFF34F8FBFF33F
:101290006F8F0BE02C48006832490968884203D1FF
:1012A00000202749086001E0FFF78BFF70BD10B5F3
:1012B000014600200A46244C5369A34201D1012370
:1012C00000E0002373B1284C936AA34201D10123AB
:1012D00000E0002333B9936A0BB9012300E0002337
:1012E00003B1012010BD70B505462C46F4B3144877
:1012F000006884424BD000F0F2FB2046FFF7D7FF96
:10130000A8B3201DFFF7D0FB94F82C1001208840D3
:101310000C49096808430B490860E16A01EB810147
:101320000E4A02EB8100211DFFF798FB04491FE0E4
:10133000E0000020E400002004ED00E0D4000020E4
:10134000C0000020D8000020F4010020C8000020C8
:10135000C4000020F0000020F80000204001002020
:10136000DC000020D0000020CC0100200FE00CE0C9
:10137000E06A0968C96A884207D34FF08050FE4985
:101380000860BFF34F8FBFF36F8F00F0B7FB70BDE6
:101390002DE9F04106460027344600BFBF21EFF398
:1013A000118081F31188BFF34F8FBFF36F8F00BFA0
:1013B00005462046FFF77BFF20B3F0480068E0B900
:1013C000EF49E06A0968C96A884200D30127201DF5
:1013D000FFF76AFB94F82C1001208840E94909685E
:1013E0000843E8490860E16A01EB8101E64A02EB43
:1013F0008100211DFFF732FB04E004F11801E348EE
:10140000FFF72CFB00BF85F3118800BF3846BDE80D
:10141000F08170B523E0FFF7EDFDDD48006808B905
:10142000012000E000200546FFF718FDBDB900F0DF
:1014300056FBD748C068C468201DFFF735FBD54868
:101440000068401ED3490860D3480068401ED24956
:10145000086000F053FB2046FFF72DFC00BFCE488C
:1014600000680028D7D170BD00BFFFF7D2FFC64883
:1014700000680128F9D94FF08050BF490860BFF3D8
:101480004F8FBFF36F8FF0E71CB5C44800210B46A8
:101490008022CDE90010C2A1C348FFF7C7FB044674
:1014A000012C14D100BFBF2080F31188BFF34F8FF0
:1014B000BFF36F8F00BF4FF0FF30BC4908600120C1
:1014C000BB4908600020BB49086000F0F2FA1CBD6F
:1014D00010B500BFBF2080F31188BFF34F8FBFF35B
:1014E0006F8F00BF0020B249086000F0F7FA10BD0E
:1014F000B049086870470021AE4A10687047A54897
:1015000000687047014611B99D48006800E0084630
:10151000024602F13400704770B505460C46984803
:10152000016818312846FFF7A5FA01212046FFF788
:1015300023FD70BD70B506460C46154644F00040CC
:101540008F49096888618E48016818313046FFF775
:1015500085FA01212846FFF70FFD70BD70B50646DC
:10156000F068C46804F11800FFF79EFA8348006829
:10157000A8B9201DFFF798FA94F82C100120884094
:101580008049096808437F490860E16A01EB8101ED
:101590007D4A02EB8100211DFFF760FA04E004F1AF
:1015A00018017A48FFF75AFA7549E06A0968C96A6A
:1015B000884204D9012501207F49086000E0002508
:1015C000284670BD2DE9F04105460F4647F0004022
:1015D0002860EC682846FFF767FA201DFFF764FAD9
:1015E00094F82C1001208840664909680843654931
:1015F0000860E16A01EB8101634A02EB8100211D71
:10160000FFF72CFA5E49E06A0968C96A884204D982
:10161000012601206849086000E000263046BDE848
:10162000F081664909680160624909684160704754
:1016300070B504460D4600F052FA5E48026828680C
:10164000401C08B9002619E05C49206809688842F6
:1016500004D06068904201D801260FE06068101A3B
:101660002968884209D228686168511A401A28609E
:101670002046FFF7D6FF002600E0012600F03EFAE4
:10168000304670BD01204C49086070473C490968EC
:1016900088693B490968C96AC1F10501384A12687D
:1016A0009161704770B506460D4600F018FA34484F
:1016B0000068406C88B901203149096881F8480008
:1016C0005DB101212846FFF757FC4FF080502A49B1
:1016D0000860BFF34F8FBFF36F8F00F00FFA00F079
:1016E000FEF927480068446C4CB126B1002024491B
:1016F0000968486403E0601E2149096848640020C5
:101700001F49096881F8480000F0F8F9204670BDCB
:101710002DE9F0410746884614461D4600F0DFF9E2
:101720001748006890F84800022818D01449096842
:1017300001F14400496CB943016001201049096876
:1017400081F848005DB101212846FFF715FC4FF0F4
:10175000805009490860BFF34F8FBFF36F8F00F0CF
:10176000CDF900F0BCF91CB105480068406C206060
:101770000348006824E0000004ED00E0F8000020C9
:10178000C0000020D800002040010020CC01002033
:10179000E0010020D0000020CC000020F400002058
:1017A00049444C450000000069140008F000002086
:1017B000DC000020D4000020E4000020E80000202D
:1017C00090F84800012801D1002608E0A1490968E5
:1017D00001F14400496C21EA080101600126002062
:1017E0009C49096881F8480000F088F93046BDE856
:1017F000F0812DE9F04781460D4616461F464FF011
:10180000010A4C4600F06BF90FB1606C386094F837
:101810004880022084F84800052E17D2DFE806F041
:101820001503070B0D00606C284360640EE0606CCC
:10183000401C60640AE0656408E0B8F1020F01D062
:10184000656401E04FF0000A00E000BF00BFB8F19E
:10185000010F22D1201DFFF727F994F82C10012049
:1018600088407D49096808437B490860E16A01EBCB
:1018700081017A4A02EB8100211DFFF7EFF87549DB
:10188000E06A0968C96A884207D94FF080507449F4
:101890000860BFF34F8FBFF36F8F00F02FF95046F2
:1018A000BDE8F0872DE9F84F82460D4616461F46E3
:1018B000DDF828B001200090544600BFBF21EFF3AF
:1018C000118081F31188BFF34F8FBFF36F8F00BF7B
:1018D00081460FB1606C386094F84880022084F82B
:1018E0004800052E17D2DFE806F01503070B0D00A0
:1018F000606C284360640EE0606C401C60640AE029
:10190000656408E0B8F1020F01D0656401E00020D1
:10191000009000E000BF00BFB8F1010F2DD1514889
:101920000068A8B9201DFFF7BFF894F82C1001201B
:10193000884049490968084347490860E16A01EB62
:101940008101464A02EB8100211DFFF787F804E080
:1019500004F118014448FFF781F83E49E06A09683C
:10196000C96A884209D9BBF1000F03D00120CBF826
:10197000000002E001203D49086000BF89F31188A2
:1019800000BF0098BDE8F88F2DE9F04105460E46EE
:101990002C4600BFBF21EFF3118081F31188BFF304
:1019A0004F8FBFF36F8F00BF074694F84880022027
:1019B00084F84800606C401C6064B8F1010F2AD1C3
:1019C00028480068A8B9201DFFF76EF894F82C107D
:1019D000012088402049096808431F490860E16ADE
:1019E00001EB81011D4A02EB8100211DFFF736F852
:1019F00004E004F118011C48FFF730F81549E06ACB
:101A00000968C96A884206D916B10120306002E02F
:101A100001201649086000BF87F3118800BFBDE8A8
:101A2000F08170B5054615B90A48006800E02846FF
:101A3000064600F054F896F84800022804D1002029
:101A400086F84800012400E0002400F057F8204602
:101A500070BD0000C0000020D80000204001002020
:101A600004ED00E0F8000020CC010020E40000209C
:101A700000BFBF2080F31188BFF34F8FBFF36F8F7C
:101A800000BF00BFFEE7001F4FF080730360001F20
:101A900021F001030360001F2B4B03601438026028
:101AA0002038704729484FF0E0214861072008613D
:101AB000704710B52648006840F47F00244908604C
:101AC0000846006840F07F400860FFF7EBFF002009
:101AD00020490860FEF78AFB002010BD704700BF58
:101AE000BF2080F31188BFF34F8FBFF36F8F00BF0C
:101AF00018480068401C174908607047154800687E
:101B0000401E144908600846006820B9002080F390
:101B1000118800BF00BF704710B500BFBF2080F321
:101B20001188BFF34F8FBFF36F8F00BFFFF71FF90F
:101B300020B14FF0805006491C39086000BF0020DA
:101B400080F3118800BF10BD711A00083F19010011
:101B500020ED00E0FC00002010B50146714800E0D7
:101B6000006803688B42FBD30246436813448B42F0
:101B700004D143684C682344436001460A464B68DD
:101B800013440468A34211D1674C03682468A3423C
:101B900008D04B680468646823444B6003681B6882
:101BA0000B6005E0604B1B680B6001E003680B6095
:101BB000884200D0016010BD30B54FF480635B48AF
:101BC00000F007042CB1C01D20F00700574C041B87
:101BD0001B1B0246534C22600024524D6C60D018EF
:101BE000083820F00700504C206000244E4D2D682E
:101BF0006C604D4D2D682C601146441A4C604A4C67
:101C000024680C604A4D4C682C604A4D4C682C602E
:101C10004FF00044484D2C6030BD2DE9F0410546A1
:101C20004FF00008FFF7E6F93F48006808B9FFF7F2
:101C3000C3FF414800682840002847D145B1083516
:101C400005F0070020B105F00700C0F108000544C9
:101C5000002D3BD037480068854237D8314E30469A
:101C6000046801E0264624686068A84202D2206821
:101C70000028F7D12C480068844227D0306800F152
:101C80000808206830606068401B102807D9671971
:101C90006068401B786065603846FFF75DFF254946
:101CA00060680968081A23490860084600682049E6
:101CB0000968884203D21F4800681D4908601E4910
:101CC000606809680843606000202060FFF7C6F87C
:101CD0004046BDE8F08170B506463546D6B1083DB0
:101CE0002C46154960680968084098B1206888B991
:101CF00011496068096888436060FFF77BF90D4906
:101D00006068096808440B4908602046FFF724FF13
:101D1000FFF7A4F870BD07480068704704480068E2
:101D200070477047000100200801002008020020D1
:101D3000100100200C0100201401002070B50446A1
:101D400000250AE02B46224621462046FEF709FCE4
:101D50000120FFF78AF9681CC5B2082DF2DB70BDBF
:101D600070B500240DE0642504E004F10A01C8B256
:101D7000FFF7E4FF2800A5F10101CDB2F5D1601C09
:101D8000C4B20A2CEFDB70BD002400BF4FF4005139
:101D9000104800F085FA04462CB14FF400510D486C
:101DA00000F08BFA04E04FF400510A4800F087FA83
:101DB0004FF47A70FFF759F9E8E71CB500200321CA
:101DC00003468022CDE9001003A10548FEF72EFF4F
:101DD0001CBD0000001001404D61696E0000000054
:101DE000891D000831490143314A1160704770B5BF
:101DF000002100230F22C47804B32D4C246804F47E
:101E0000E064C4F5E064210AC1F10403CA404478E7
:101E100004FA03F18478144021430901254C067823
:101E2000A155047804F01F050124AC4005786D111C
:101E3000AD0005F1E025C5F8004109E0047804F0A3
:101E40001F050124AC401C4D0678761145F826404C
:101E500070BD1A4A0A400243154B1B1F1A60704797
:101E600039B1134A121D12680243114B1B1D1A602F
:101E700006E00F4A121D126882430D4B1B1D1A60AB
:101E80007047042808D14FF0E021096941F00401AE
:101E90004FF0E022116107E04FF0E021096921F0E5
:101EA00004014FF0E0221161704700000000FA05C4
:101EB0000CED00E000E400E080E100E080FFFF1FA7
:101EC00010B5012000F0A2FC002000F09FFC10BD26
:101ED0002A49086070472949091F08607047274947
:101EE00084310860704701460020254A10884FF66B
:101EF0007F4210400843224A10807047014600206C
:101F00001F4A10884FF68072104008431C4A108008
:101F1000704708B500220092194A2C3A0092009AA4
:101F200002440092009A116008BD08B501460020E5
:101F3000009013482C3800900098084400900098B6
:101F4000008808BD0D489C300068C0B270470C483E
:101F50000830008840F001000949083108807047C6
:101F60000648A0300068C0B27047054808300088B5
:101F700040F00200024908310880704704860D4293
:101F80002C6C0040002044490860091D0860091DB0
:101F90000860091D086041483F49143108607047D6
:101FA00000213D498279002A3AD00A461268036826
:101FB0009A430B461A600A1D126803689A430B1D68
:101FC0001A60027911440A6803681A430A60324AA7
:101FD0000832126803689A432F4B08331A601A1D9F
:101FE000126803689A432C4B0C331A604279102A0A
:101FF0000ED11A1F126803681A43274B08331A6060
:102000001A1D126803681A43234B0C331A600DE043
:102010002149427911440A6803681A430A6005E0BD
:10202000027911440A6803689A430A6070470021E4
:10203000016001710C2141710021817170471649C5
:10204000103109680143144A10321160704701468B
:102050000020114A143212680A400AB1012000E03F
:10206000002070470C491431086070470146002079
:102070000022094B1B6803EA0102074B14331B685B
:102080000B4013B10AB1012000E000207047024963
:10209000143108607047000000040140FFFF0F008A
:1020A00010B50446CC48844208D10121042000F038
:1020B00093FB0021042000F08FFB46E0C7488442D8
:1020C00008D10121082000F087FB0021082000F042
:1020D00083FB3AE0C248844208D10121102000F07D
:1020E0007BFB0021102000F077FB2EE0BD488442EE
:1020F00008D10121202000F06FFB0021202000F0FA
:102100006BFB22E0B848844208D10121402000F056
:1021100063FB0021402000F05FFB16E0B3488442DF
:1021200008D10121802000F057FB0021802000F021
:1021300053FB0AE0AE48844207D10121801500F02C
:102140004BFB0021A01500F047FB10BD10B501218D
:10215000084600F041FB0021012000F03DFB10BDCE
:102160002DE9F0410246002500260020002300242E
:10217000002791F803C00CF00F0591F803C00CF094
:10218000100CBCF1000F03D091F802C04CEA050519
:1021900091F800C0BCF1000F31D0146800202BE092
:1021A0004FF0010C0CFA00F3B1F800C00CEA030682
:1021B0009E4220D183004FF00F0C0CFA03F7BC4372
:1021C00005FA03FC4CEA040491F803C0BCF1280FA3
:1021D00006D14FF0010C0CFA00FCC2F814C00AE062
:1021E00091F803C0BCF1480F05D14FF0010C0CFA77
:1021F00000FCC2F810C0401C0828D1D31460B1F80C
:1022000000C0BCF1FF0F34DD546800202EE000F167
:10221000080C4FF0010808FA0CF3B1F800C00CEA02
:1022200003069E4221D183004FF00F0C0CFA03F7F6
:10223000BC4305FA03FC4CEA040491F803C0BCF16A
:10224000280F05D100F1080C08FA0CF8C2F8148028
:1022500091F803C0BCF1480F07D100F1080C4FF012
:10226000010808FA0CF8C2F81080401C0828CED3E8
:102270005460BDE8F0814FF6FF710180022181704A
:102280000421C17070470246002093680B400BB1D7
:10229000012000E0002070470146886880B2704746
:1022A00002460020D3680B400BB1012000E0002063
:1022B00070470146C86880B270470161704741614C
:1022C00070470AB1016100E041617047C160704729
:1022D0004FF480320A43826181618261826982693E
:1022E000704702460020434B18684FF68073184031
:1022F00040EA021008433F4B186070473E49C861EE
:102300007047F0B50A46002300240021002500F0A4
:102310000046B6F1004F02D1364EF16901E0354E6C
:102320007168C0F3034583B200F44016B6F5401F50
:1023300008D121F070612F4E766826F070662D4F1F
:102340007E6012E000F48016B6F5801F06D10326E9
:1023500006FA05F4A14341F0706106E0460D36012E
:1023600003FA06F6B14341F0706122B1460D360121
:1023700003FA06F6314300F00046B6F1004F02D1F1
:102380001C4EF16101E01B4E7160F0BD30B50022C2
:102390008B071C0F0F2303FA04F2164B08338C1023
:1023A00053F824309343134C08348D1044F82530EF
:1023B00023468C1053F824308C07240F00FA04F4C1
:1023C00023430C4C08348D1044F8253030BD0A49A5
:1023D000DC3108607047000000080140000C01403B
:1023E000001001400014014000180140001C014091
:1023F00000200140000001400000204210B50121F2
:10240000080700F0F6F900214FF0805000F0F1F9D4
:1024100010BD2A4908627047284908617047014683
:102420000020274A106820F0E00008431060704741
:102430002249A0310860704710B502460020204BA9
:10244000186820F00300104318601E4B1B6843F00F
:1024500004031C4C2360012901D130BF00E020BFE0
:10246000184B1B6823F00403164C236010BD14485E
:10247000006840F00400124908600846006840F017
:10248000020008600F48006840F004000D49086031
:1024900000BF00BF30BF704701460020084A5268A5
:1024A0000A400AB1012000E0002070470449096891
:1024B00041EA8001024A11607047000000000E42AC
:1024C0000070004010ED00E0DF48006840F00100BF
:1024D000DD49086008464068DC490840DA49486040
:1024E00008460068DA490840D7490860084600688D
:1024F00020F4802008600846406820F4FE00486010
:102500004FF41F0088607047CF49096821F480317B
:10251000CD4A11601146096821F480211160B0F59F
:10252000803F03D0B0F5802F0ED106E0C649096880
:1025300041F48031C44A116007E0C349096841F49D
:10254000A021C14A116000E000BF00BF704710B574
:1025500001460022002300204A11012A02D1BA4C70
:10256000236806E0022A02D1B74C236A01E0B64C88
:10257000636A01F01F02012494401C400CB1012049
:1025800000E0002010BD38B5002000900024002598
:1025900000BF3120FFF7DBFF05460098401C00908C
:1025A0000098B0F5A06F01D0002DF2D03120FFF7D8
:1025B000CEFF08B1012400E00024204638BD0146CA
:1025C0000020A14A106820F0F80040EAC100106025
:1025D0007047A04908607047024600209A4B58682F
:1025E00020F47C1042EA01031843974B586070476F
:1025F00098490866704701460020934A506820F0C9
:1026000003000843506070478F48406800F00C009A
:102610007047014600208C4A506820F0F0000843C3
:102620005060704701460020874A506820F4E060FF
:1026300008435060704701460020834A506820F4E8
:10264000605040EAC1005060704729B17E4A527A1A
:1026500002437D4B5A7204E07B4A527A82437A4BA2
:102660005A7270477B49D831086070470146002094
:10267000754A506820F4404008435060704700217C
:10268000714A20321170704A82F82010012802D05D
:1026900004280AD104E001216B4A2032117005E0C0
:1026A0000521694A2032117000E000BF00BF704769
:1026B0006949086070476449096A0143624A1162C6
:1026C0007047654944390860704730B500210022E1
:1026D000002400235C4D6D6805F00C0121B1042934
:1026E00005D0082923D105E05C4D056022E05B4D53
:1026F00005601FE0544D6D6805F47012524D6D6811
:1027000005F48034022505EB92421CB9544D554323
:1027100005600BE04C4D6D6805F400351DB1504D62
:102720005543056002E04D4D5543056002E04B4DB9
:10273000056000BF00BF444D6D6805F0F001090958
:10274000484D6B5C0568DD4045603F4D6D6805F4A4
:10275000E061090A434D6B5C4568DD4085603A4D98
:102760006D6805F46051C90A3E4D6B5C4568DD40FB
:10277000C560354D6D6805F44041890B3A4D6B5C81
:10278000C568B5FBF3F5056130BD29B12E4A526924
:1027900002432D4B5A6104E02B4A526982432A4B73
:1027A0005A61704729B1284A92690243264B9A61BF
:1027B00004E0254A92698243234B9A61704729B10C
:1027C000214AD2690243204BDA6104E01E4AD269F1
:1027D00082431D4BDA61704729B11B4AD26802431C
:1027E000194BDA6004E0184AD2688243164BDA606B
:1027F000704729B1144A12690243134B1A6104E06D
:10280000114A12698243104B1A61704712494039CC
:10281000086070470F49C86470470B49C87170471A
:102820000948406A40F08070074948627047014695
:102830000020054A92680A400AB1012000E0002009
:102840007047014988727047001002400000FFF88D
:10285000FFFFF6FE000042428004424200127A006E
:1028600000093D00180100202801002029B1504A2C
:10287000128802434E4B1A8004E04D4A128882436C
:102880004B4B1A8070474A48001D008840F01000EA
:102890004749091D088070474548001D00884FF6CC
:1028A000EF7108404249091D0880704700214048E7
:1028B0001C300188001F008841EA0040704700B5C5
:1028C0000246FFF7E0FF100C394918310880091D56
:1028D0000A80FFF7E1FF00BD00B50246FFF7D3FF16
:1028E000C2F30340324908310880091D0A80FFF70E
:1028F000D3FF00BD00B50246FFF7C5FF100C2C4901
:1029000020310880091D0A80FFF7C6FF00BD0020A6
:102910002749103109880907080B2549143109880E
:102920000843704700BF2248001D008800F02000C7
:102930000028F8D070471E48001D00884FF6F77138
:1029400008401B49091D088000BF1948001D008868
:1029500000F008000028F8D0704701460020144A13
:10296000121D12880A400AB1012000E000207047C1
:102970000F49091D098881430D4A121D11807047B6
:10298000014600200A4A121D12880A40D0B2084AA5
:1029900012880A4012B108B1012000E000207047FF
:1029A0000349091D09888143014A121D118070479E
:1029B0000028004010B50446FE48844208D1012199
:1029C000C014FFF709FF0021E014FFF705FFC4E082
:1029D000B4F1804F08D101210846FFF70AFF00211A
:1029E0000120FFF706FFB8E0F348844208D1012137
:1029F0000220FFF7FEFE00210220FFF7FAFEACE006
:102A0000EE48844208D101210420FFF7F2FE0021A4
:102A10000420FFF7EEFEA0E0E948844208D101213E
:102A20000820FFF7E6FE00210820FFF7E2FE94E011
:102A3000E448844208D101211020FFF7DAFE00218A
:102A40001020FFF7D6FE88E0DF48844208D101213C
:102A50002020FFF7CEFE00212020FFF7CAFE7CE0F9
:102A6000DA48844208D101214014FFF7B5FE002165
:102A70006014FFF7B1FE70E0D548844209D101210E
:102A8000C804FFF7A9FE00214FF40020FFF7A4FEC1
:102A900063E0D048844209D101210805FFF79CFE7C
:102AA00000214FF48010FFF797FE56E0CA48844299
:102AB00009D101214805FFF78FFE00214FF40010D6
:102AC000FFF78AFE49E0C548844208D10121402031
:102AD000FFF78FFE00214020FFF78BFE3DE0C0484E
:102AE000844208D101218020FFF783FE002180204D
:102AF000FFF77FFE31E0BB48844208D101218015F9
:102B0000FFF777FE0021A015FFF773FE25E0B6481A
:102B1000844209D101210804FFF75EFE00214FF431
:102B20008030FFF759FE18E0B048844209D10121F6
:102B30004804FFF751FE00214FF40030FFF74CFE30
:102B40000BE0AB48844208D101218804FFF744FE22
:102B500000214FF48020FFF73FFE10BD00220288C5
:102B6000944B98420ED0994B98420BD0B0F1804FC5
:102B700008D0914B984205D0904B984202D0904B90
:102B8000984204D14FF68F731A404B881A438D4BED
:102B9000984207D08C4B984204D04FF6FF431A401E
:102BA000CB881A4302808B8883850B880385814BF1
:102BB00098420BD0854B984208D08B4B984205D059
:102BC0008A4B984202D08A4B984201D10B7A0386F5
:102BD00001238382704770B5002400220023058CF6
:102BE0004FF6FE7635400584028C8388048B4FF6C1
:102BF0008F752C40B51E2C400D882C43751E2A4025
:102C00000D892A434D882A436A4DA8420BD06F4D47
:102C1000A84208D0744DA84205D0744DA84202D0F5
:102C2000734DA84213D14FF6F7752A404D892A43B8
:102C30004FF6FB752A408D882A434FF6FF652B40DF
:102C40004FF6FF552B408D892B43CD892B43838035
:102C50000483CD888586028470BD70B5002400226F
:102C60000023058C4FF6EF7635400584028C83886F
:102C7000048B48F6FF752C404FF6FF452C400D881D
:102C80004FF6FF7606EA05252C434FF6DF752A40FE
:102C90000D8906EA05152A434D8806EA05152A43DB
:102CA000444DA84202D0494DA8421DD14FF67F7530
:102CB0002A404D894FF6FF7606EA05152A434FF65E
:102CC000BF752A408D8806EA05152A434FF6FF3561
:102CD0002B404FF2FF752B408D8906EA85052B436B
:102CE000CD8906EA85052B4383800483CD8805873B
:102CF000028470BD70B5002400220023058C4FF6BD
:102D0000FF6635400584028C8388848B4FF68F756F
:102D10002C404FF6FC752C400D882C434FF6FF5588
:102D20002A400D894FF6FF7606EA05252A434D888D
:102D300006EA05252A431F4DA84202D0234DA8428A
:102D40001DD14FF2FF752A404D894FF6FF7606EAF6
:102D500005252A434FF6FF352A408D8806EA0525CA
:102D60002A434EF6FF752B404DF6FF752B408D899B
:102D700006EA05152B43CD8906EA05152B4383800A
:102D80008483CD888587028470BD70B500220023BE
:102D90000024058C4EF6FF7635400584038C84882C
:102DA000828B48F6FF752A404FF6FF452A400D8872
:102DB00020E00000002C014000040040000800401A
:102DC000000C00400010004000140040003401409E
:102DD000004C0140005001400054014000180040E8
:102DE000001C004000200040004001400044014021
:102DF000004801404FF6FF7606EA05252A434DF6C6
:102E0000FF752B400D8906EA05352B434D8806EAF0
:102E100005352B43FA4DA84202D0FA4DA84208D1FD
:102E20004BF6FF752C408D894FF6FF7606EA851527
:102E30002C4384808283CD88A0F84050038470BDE9
:102E4000828B4FF2FF331A408283828B4FF6FF73DF
:102E500003EA01231A4382837047F0B50C461546F6
:102E6000002200210026078C4EF6FF7C07EA0C07A3
:102E70000784828B018C4FF6FF7707EA043640F611
:102E8000FF473A404FF6FF7707EA05273A434FF6E8
:102E9000FF7707EA03373A43D94FB8420ED0D94FEC
:102EA000B8420BD0B0F1804F08D0D74FB84205D010
:102EB000D64FB84202D0D64FB84206D14DF6FF7772
:102EC000394046F48057394305E047F6FF5739400B
:102ED00044F48057394382830184F0BD828B4FF6DE
:102EE000F3731A408283828B0A4382837047F0B562
:102EF0000C461546002200210026078C4FF6FF6C79
:102F000007EA0C070784828B018C4FF6FF7707EAEC
:102F100004264FF60C773A404FF6FF7707EA03177F
:102F20002F433A43B64FB8420ED0B64FB8420BD0FB
:102F3000B0F1804F08D0B44FB84205D0B34FB8427B
:102F400002D0B34FB84206D14FF6FF57394046F48E
:102F50008077394305E04FF2FF57394044F48077DA
:102F6000394382830184F0BD028B4FF2FF331A4054
:102F70000283028B4FF6FF7303EA01231A43028395
:102F80007047F0B50C461546002200210026078C3C
:102F90004FF6EF7C07EA0C070784028B018C4FF693
:102FA000FF7707EA041640F6FF473A404FF6FF77EF
:102FB00007EA03373A434FF6FF7707EA05273A4314
:102FC0008F4FB8420ED08F4FB8420BD0B0F1804F28
:102FD00008D08D4FB84205D08C4FB84202D08C4FEC
:102FE000B84206D14FF6DF77394046F01007394333
:102FF00005E04FF65F77394044F01007394302830C
:103000000184F0BD028B4FF6F3731A400283028BEA
:103010000A4302837047F0B50C4615460022002192
:10302000068C4FF6FE773E400684028B018C4FF6ED
:103030000C7632407E1C06EA03162E433243704E55
:10304000B0420ED06F4EB0420BD0B0F1804F08D0DE
:103050006D4EB04205D06D4EB04202D06C4EB042C3
:1030600006D14FF6FD76314044F00106314305E0CC
:103070004FF6F576314044F0010631430283018476
:10308000F0BD70B505460C465D4885420ED05D48E2
:1030900085420BD0B5F1804F08D05B48854205D002
:1030A0005A48854202D05A48854200D100E000BF0C
:1030B000208850B92389A28861882846FFF7ABFF92
:1030C000E1882846FFF79EFF25E0208804280AD1E2
:1030D0002389A28861882846FFF753FFE1882846A4
:1030E000FFF742FF17E0208808280AD12389A28829
:1030F00061882846FFF7FBFEE1882846FFF7EEFED1
:1031000009E02389A28861882846FFF7A6FEE188A6
:103110002846FFF795FE70BD2DE9F04105460C46A7
:1031200000260127608808B9022600E00026A08852
:10313000012801D1022700E001272088A0B92389B6
:10314000A28861882846FFF766FFE1882846FFF7D6
:1031500059FF23893A4631462846FFF712FFE18896
:103160002846FFF701FF13E02389A28861882846DB
:10317000FFF707FFE1882846FFF7F6FE23893A4666
:1031800031462846FFF747FFE1882846FFF73AFF18
:10319000BDE8F0810A884B881A438B881A43CB8894
:1031A0001A430B891A434B891A438B891A43A0F897
:1031B000442070474FF6FF71818000210180C1805B
:1031C0004180017270470021018041808180C1806F
:1031D000018141818181C18170470021018041804D
:1031E000012181800021C18001817047002101807F
:1031F00041808180C18001814181818170470000CF
:10320000002C014000340140000400400008004050
:10321000000C004021B1028842F00102028004E06B
:1032200002884FF6FE731A400280704731B1B0F841
:10323000442042F40042A0F8442005E0B0F84420C5
:10324000C2F30E02A0F8442070471AB183890B43E1
:10325000838102E083898B43838170478182704739
:1032600041EA0203A0F8483070471AB183890B4342
:10327000838102E083898B438381704701894FF604
:10328000F8721140018170470A46002101894FF60A
:103290008F73194011430181704730B504460D46C4
:1032A00029462046FFF7F0FF208940F007002081E3
:1032B00030BD2DE9F04104460D4616461F46602DEF
:1032C00006D13B46012231462046FFF75AFE05E073
:1032D0003B46012231462046FFF79DFE2946204607
:1032E000FFF7D2FF208940F007002081BDE8F08180
:1032F00030B50C4600210189C9B24FF6FF7505EAC9
:103300000325154325432943018130BD2DE9F041B3
:1033100005460E4617469846002443463A4631462F
:103320002846FFF7E5FF2C894FF6F870044044F07B
:1033300007044FF68F70044044F070042C81BDE800
:10334000F081F0B504460D4616461F463B46324610
:1033500029462046FFF7CCFF208940F48040208199
:10336000F0BD0185828270470A46002101884FF630
:103370008F731940114301807047F0B50C46154614
:103380001E460021002200230189028B038C4FF688
:10339000F877394021434FF6FC473A4040F2011795
:1033A0003A434FF6DD773B404FF6FF7707EA0617C3
:1033B0002F433B43018102830384F0BD0A46002171
:1033C000018B4FF68F7319401143018370470A46F2
:1033D0000021018B48F6FF7319404FF6FF7303EA93
:1033E00002231943018370470A460021818B4FF65F
:1033F0008F7319401143818370470A460021818BE6
:1034000048F6FF7319404FF6FF7303EA022319438E
:103410008183704721B1028842F08002028004E07B
:1034200002884FF67F731A400280704721B182886C
:1034300042F00402828004E082884FF6FB731A4057
:103440008280704721B1828842F00802828004E0C5
:1034500082884FF6F7731A408280704721B18288C4
:1034600042F00102828004E082884FF6FE731A4027
:10347000828070470A460021018B4FF6F77319408E
:103480001143018370470A460021018B4FF2FF73FD
:1034900019404FF6FF7303EA022319430183704773
:1034A0000A460021818B4FF6F7731940114381833F
:1034B00070470A460021818B4FF2FF7319404FF687
:1034C000FF7303EA02231943818370470A460021F0
:1034D000018B4FF6FB7319401143018370470A4675
:1034E0000021018B4FF6FF3319404FF6FF7303EABB
:1034F00002231943018370470A460021818B4FF64E
:10350000FB7319401143818370470A460021818B68
:103510004FF6FF3319404FF6FF7303EA02231943B6
:10352000818370470A460021018B4FF67F73194053
:103530001143018370470A460021018BC1F30E013C
:103540004FF6FF7303EA02231943018370470A46CB
:103550000021818B4FF67F7319401143818370479F
:103560000A460021818BC1F30E014FF6FF7303EA77
:1035700002231943818370470A460021018C4FF6CC
:10358000FD7319401143018470470A460021018CE4
:103590004FF6F77319401143018470470A46002122
:1035A000018C4FF6DF7319404FF6FF7303EA0213E5
:1035B0001943018470470A460021018C4FF67F733E
:1035C00019404FF6FF7303EA021319430184704751
:1035D0000A460021018C4FF6FF5319404FF6FF7346
:1035E00003EA02231943018470470A460021018C33
:1035F0004FF2FF7319404FF6FF7303EA022319439A
:10360000018470470A460021018C4DF6FF73194072
:103610004FF6FF7303EA023319430184704730B554
:10362000002301248C40A3B2048C9C430484048CAA
:1036300002FA01F5ADB22C43048430BD30B500234D
:1036400004248C40A3B2048C9C430484048C02FAAE
:1036500001F5ADB22C43048430BD70B503460020A3
:1036600000241846183001258D40ACB21D8CA543AE
:103670001D8409B1082909D100EB6100056825F016
:10368000700505600568154305600EE00D1FC5F364
:103690004E052844056825F4E045056005684FF6A9
:1036A000FF7606EA02263543056070BD21B1028827
:1036B00042F00202028004E002884FF6FD731A40D5
:1036C0000280704721B1028842F00402028004E0C7
:1036D00002884FF6FB731A400280704721B182883E
:1036E00042F08002828004E082884FF67F731A40A5
:1036F0008280704702884FF6F7731A400280028872
:103700000A430280704782884FF68F731A40828086
:1037100082880A438280704702894FF6F8731A4004
:10372000028102890A430281704702894FF67F7342
:103730001A40028102890A430281704781847047DE
:103740008185704781867047018770478187704700
:10375000A0F84010704702884FF6FF431A400280DD
:1037600002880A43028070470146888E70470146EE
:10377000088F70470146888F70470146B1F84000B6
:1037800070470146888C70470146088D7047024695
:103790000020138A0B400BB1012000E0002070478D
:1037A000CA430282704730B502460020002300243D
:1037B000158A05EA0103958905EA010413B10CB1E4
:1037C000012000E0002030BDCA43028270470000A3
:1037D0000948804709480047FEE7FEE7FEE7FEE7A5
:1037E000FEE7FEE7FEE7FEE7FEE7FEE704480549E1
:1037F000054A064B70470000EF380008ED0000084E
:1038000068060020680C0020680800206808002076
:103810000CB50020019000906C48006840F48030A6
:103820006A49086000BF6948006800F400300090F1
:103830000198401C0190009818B90198B0F5A06F4C
:10384000F1D16248006800F4003010B1012000900E
:1038500001E0002000900098012843D15C480068F6
:1038600040F010005A4908600846006820F0030044
:1038700008600846006840F002000860534840684D
:10388000524948600846406848600846406840F42D
:10389000806048600846406820F47C104860084614
:1038A000406840F4E81048600846006840F08070C6
:1038B000086000BF4548006800F000700028F9D09B
:1038C0004248406820F0030040494860084640688C
:1038D00040F00200486000BF3C48406800F00C0027
:1038E0000828F9D10CBD10B5FFF792FF10BD10B537
:1038F0003648006840F001003449086008464068D6
:103900003449084031494860084600683249084057
:103910002E4908600846006820F4802008600846A8
:10392000406820F4FE0048604FF41F008860FFF7F5
:10393000DAFF4FF000602949086010BD10B5002182
:1039400000200022214B5B6803F00C0121B1042907
:1039500006D0082928D107E0214B224C236027E01C
:103960001F4B204C236023E0184B5B6803F470105E
:10397000164B5B6803F48032022303EB904022B9BC
:10398000194B4343174C23600DE0104B5B6803F465
:10399000003323B1144B4343124C236003E0104B1C
:1039A0004343104C236003E00D4B0E4C236000BFDB
:1039B00000BF064B5B68C3F303130C4CE15C094B7F
:1039C0001B68CB40074C236010BD00000010024074
:1039D000002002400000FFF8FFFFF6FE08ED00E0C7
:1039E00000127A002C01002000093D003001002067
:1039F000704770477047754600F028F8AE460500DE
:103A00006946534620F00700854618B020B5FFF7F9
:103A1000EDFEBDE820404FF000064FF000074FF0EC
:103A200000084FF0000B21F00701AC46ACE8C009DC
:103A3000ACE8C009ACE8C009ACE8C0098D467047E5
:103A40000446AFF300802046FCF7B7FB0048704700
:103A50000806002001491820ABBEFEE72600020040
:103A600070470000843A0008000000204001000078
:103A7000280100081C3B000840010020280B000022
:103A8000840100081013039F250D9949411F010966
:103A9000029E240C9848401E000E4C08FDFFFCFEC0
:103AA000010204081020408012041208120C1210A7
:103AB00012141218121C122012241228124012443E
:103AC0001248124C125012541258125C12601264B6
:103AD0001268126C127012741278127C12801284A6
:103AE0001288128C129012941298129C12A012A496
:103AF00012A812AC12B012B412B8023DBC1AAA013C
:103B0000011C2D0102030404100906070809020420
:0C3B10000608ACA24A041C2918000000A2
:04000005080000ED02
:00000001FF
